:020000022000DC
:1070000000000220197202000172020003720200E5
:1070100005720200077202000972020000000000FF
:107020000000000000000000000000000B720200E1
:107030000D720200000000000F72020011720200C7
:107040008DC102001372020065CD020013720200AE
:10705000011C0300137202005DCC020013720200D7
:107060001372020013720200137202001372020004
:1070700013720200137202001372020013720200F4
:107080001372020009E1020013720200137202007F
:107090001372020013720200E50D03001372020066
:1070A00013720200137202001372020013720200C4
:1070B00013720200137202000000000000000000C2
:1070C00013720200137202001372020013720200A4
:1070D0001372020013720200137202001372020094
:1070E0001372020000000000000000000000000019
:1070F0000000000013720200000000001372020082
:10710000000000000000000000000000000000007F
:10711000000000000000000000000000000000006F
:10712000000000000000000000000000000000005F
:10713000000000000000000000000000000000004F
:10714000000000000000000000000000000000003F
:10715000000000000000000000000000000000002F
:10716000000000000000000000000000000000001F
:10717000000000000000000000000000000000000F
:1071800000000000000000000000000000000000FF
:1071900000000000000000000000000000000000EF
:1071A00000000000000000000000000000000000DF
:1071B00000000000000000000000000000000000CF
:1071C00000000000000000000000000000000000BF
:1071D00000000000000000000000000000000000AF
:1071E000000000000000000000000000000000009F
:1071F000000000000000000000000000000000008F
:10720000FEE7FEE7FEE7FEE7FEE7FEE7FEE7FEE756
:10721000FEE7FEE700F002B8FFF7FCBF0F484FF0B3
:107220000701884385460E4880470E48016841F4AF
:1072300070010160BFF34F8FBFF36F8F00F01AB87A
:1072400009480A490A4A884207D0521A05D00378E9
:1072500001300B700131013AF9D170470000022072
:10726000158C020088ED00E020280300E82A0020A9
:10727000E82A00203A493B480A1A02D007229143E3
:107280008D46394939480A1A06D00722914381F3BD
:107290000988022282F3148835483649364A00F0BC
:1072A00041F836483649374A00F03CF83648374905
:1072B000374A00F037F837483749384A00F032F893
:1072C00037483849384A00F02DF838483849394AA3
:1072D00000F028F838483949394A00F023F839488D
:1072E0003949002200F036F838483949002200F0C8
:1072F00031F838483849091A0BF062F9374A904793
:1073000025482649884205D00268043003B49047D6
:1073100003BCF7E700208646EC4600200021304AF7
:107320009047FEE7884214D0521A12D003460B430E
:1073300013430324234206D1036804300B60043155
:10734000043AF9D17047037801300B700131013AEA
:10735000F9D17047884202D002700130FAE77047D5
:107360000000022000F8012000000220000002209E
:1073700078490300E82A0020E82B0020E47302008B
:10738000E47302001427030078490300E82A002070
:10739000E82A0020202803002028030020280300DA
:1073A00020280300202803002028030020280300B1
:1073B0002028030078490300784A0300E82B0020C6
:1073C000E82B0020E82B00202C3B00202C3B002049
:1073D0002C3B00202C3B00202C430020417202005B
:0473E000897B0200A3
:1073E40076DF704700BF18467ADF704700BF184643
:1073F4007CDF704700BF18467FDF704700BF184628
:107404008FDF704700BF1846B1DF704700BF1846D2
:1074140000B583B003460091ADF80630BDF80630E0
:10742400009A1946034805F0F9FC00BF03B05DF863
:1074340004FB00BFEFBEADDE00B587B09DF80030A1
:10744400012262F303038DF800309DF8003001221D
:1074540062F307138DF800306B4611221A4918465F
:10746400FFF7C6FF0590059B0493049B002B04D0F3
:10747400164AAE21049805F0D1FC01AB0822002184
:1074840018460BF015F91023ADF804303C23ADF881
:1074940006300023ADF808304FF4C873ADF80A3055
:1074A40001AB1846FFF7A0FF0590059B0393039BD0
:1074B400002B04D0054AB821039805F0AFFC00BFA7
:1074C40007B05DF804FB00BF202803003428030044
:1074D40000B583B00190044AC521019805F09EFCD3
:1074E40000BF03B05DF804FB342803002DE9F0432A
:1074F40085B000AF78607B681B78002B3CD16B466D
:107504001E467B689B8A591C4B1EBB600A4600239F
:10751400904699464FF000024FF000034FEAC9032A
:1075240043EA58734FEAC8020A46002314461D462C
:107534004FF000024FF00003EB0043EA5473E20003
:107544000B460733DB08DB00ADEB030D6B46003362
:10755400FB607B6819697B689B8A1A46F8680BF0A4
:1075640075F87B689B8A1A46FB6800219954F96870
:1075740004480AF056FDB54600BF1437BD46BDE8C1
:10758400F08300BFB828030000B587B0002301933F
:10759400164B019301AB1946154804F021F80590E8
:1075A400059B0493049B002B04D0124AF2210498F7
:1075B40005F034FC02AB0422002118460BF078F8E5
:1075C4000D4B029302AB19460C4804F045FA0590A2
:1075D400059B0393039B002B04D0064AFA210398CE
:1075E40005F01CFC00BF07B05DF804FBD574020075
:1075F400002C002034280300F1740200F02A00203B
:1076040000B585B00190019B1B78002B11D10B4B69
:107614001B883B211846FFF7E3FE0390039B02936C
:10762400029B002B05D0064A4FF48871029805F09E
:10763400F5FB00BF05B05DF804FB00BF0C2B002078
:107644003428030000B583B00190054A40F21B11B1
:10765400019805F0E3FB00BF03B05DF804FB00BF35
:107664003428030000B58BB001AB1C22002118465E
:107674000BF01EF8002301934FF4A03302934FF450
:10768400F023039303238DF810300023ADF8123058
:1076940000238DF814300C4B06930C4B079301AB6D
:1076A400184602F039FF0990099B0893089B002BA8
:1076B40005D0074A4FF49971089805F0AFFB00BF55
:1076C4000BB05DF804FB00BF0576020049760200AA
:1076D4003428030000B585B003468DF807309DF8C3
:1076E4000730002B11D0032B12D1022000F07EFEB4
:1076F4000390039B0293029B002B0BD0084A40F299
:107704004B11029805F08AFB04E000F0CBFF02E085
:1077140000BF00E000BF00BF05B05DF804FB00BF80
:107724003428030000B58DB001900091019B1B88A3
:10773400562B00F0D780562B00F3E780522B00F035
:10774400AA80522B00F3E180212B2DDC102BC0F2F8
:10775400DC80103B112B00F2D88001A252F823F0F8
:10776400B57702001B7802000F79020073780200DB
:107774000F7902000F7902000F7902000F790200DD
:107784000F7902000F7902000F7902000F790200CD
:107794000F7902000F7902000F7902000F790200BD
:1077A4000F7902003F7802003B2B00F08880ACE0A8
:1077B4005D4A5E4BD31ADB081B0443F003035C49A8
:1077C400184608F059FB072000F010FE0B900B9BA5
:1077D4000593059B002B05D0564A40F26511059888
:1077E40005F01CFB019B9A88534B1A80524B1B8853
:1077F4001946524803F016FF0B900B9B0493049B0D
:10780400002B05D04B4A4FF4B471049805F006FBE5
:1078140000F06CFF84E0444A444BD31ADB081B0499
:1078240043F003034649184608F026FB424B4FF643
:10783400FF721A8000F036FF72E000238DF80C30DE
:1078440000238DF80D30019B9B8803AA114618462E
:10785400FFF7D6FD0B900B9B0793079B002B56D08D
:10786400344A4FF4BE71079805F0D8FA4FE0324B12
:107874001888002300228521FFF7BEFD0B900B9B87
:107884000693069B002B44D02A4A4FF4C1710698F4
:1078940005F0C4FA3DE0284B18880023002200219B
:1078A400FFF7B2FD0B900B9B0993099B002B32D081
:1078B400204A4FF4C471099805F0B0FA2BE0019BFB
:1078C4009B8813211846FFF78BFD0B900B9B0893A5
:1078D400089B002B21D0174A40F28F11089805F01D
:1078E4009DFA1AE0019B9B8813211846FFF778FD47
:1078F4000B900B9B0A930A9B002B10D00D4A4FF45C
:10790400CB710A9805F08AFA09E000BF08E000BFCD
:1079140006E000BF04E000BF02E000BF00E000BFDB
:1079240000BF0DB05DF804FBB827030088270300EF
:10793400D0280300342803000C2B0020002C002046
:10794400DC28030000B587B009F0C8F90590059B51
:107954000493049B002B05D0164A40F2A911049805
:1079640005F05CFA0023019301AB1946012009F0EC
:107974006DFA0590059B0393039B002B05D00D4ADC
:1079840040F2AF11039805F049FA01AB184609F02B
:107994007BFB0590059B0293029B002B05D0054AB7
:1079A40040F2B311029805F039FA00BF07B05DF850
:1079B40004FB00BF3428030000B583B0019000919C
:1079C400009B5A88114B1B889A421AD1009B1B8832
:1079D40040F67722934214D1009B9B88033B9AB2D2
:1079E4000B4B1A800B4A0C4BD31ADB081B0443F0D5
:1079F4000300074B1B881A46054B1B88074908F0F0
:107A04005AFA00BF03B05DF804FB00BF0C2B002042
:107A14000E2B0020B827030088270300EC2803005E
:107A240000B585B01149124803F0DAFC0390039BBA
:107A34000293029B002B05D00E4A4FF4E771029883
:107A440005F0ECF9F7210A4803F0F5FC0390039BD9
:107A54000193019B002B05D0064A40F2D1110198F5
:107A640005F0DCF900BF05B05DF804FBBD79020048
:107A7400EC2B00203428030000B5AFB001ABAC22DE
:107A8400002118460AF014FE02238DF80430002366
:107A94008DF8063005238DF807300123ADF85030FA
:107AA400124B159301238DF880304023239344F225
:107AB400506324930E4B2A9301AB19460D4802F0F0
:107AC400C5F92D902D9B2C932C9B002B05D00A4A95
:107AD40040F211212C9805F0A1F90121054802F08A
:107AE400A8F900BF2FB05DF804FB00BF102B0020E5
:107AF400D97602000C2C00203428030000B583B092
:107B04004FF48041002007F0E1FE0190019B0093B7
:107B1400009B002B05D0064A40F22E21009805F068
:107B24007DF907F069FE00BF03B05DF804FB00BFF8
:107B34003428030008B508F0FBF9034683F0010379
:107B4400DBB2002B01D007F09FFB00BF08BD000093
:107B540000B583B00321094802F054FA0190019B57
:107B64000093009B002B05D0054A4FF41471009834
:107B740005F054F900BF03B05DF804FB0C2C0020A1
:107B84003428030008B5FFF7B9FF114800F058FD89
:107B9400FFF7D8FEFFF750FCFFF742FFFFF7F4FCB6
:107BA400FFF76AFFFFF75EFD0A480AF049F80A4A40
:107BB4000A4BD31ADB081B0443F003030849184695
:107BC40008F05AF9FFF7C4FFFFF7B4FFFCE700BF62
:107BD4000C2C002008290300B82703008827030081
:107BE4001429030000B583B00190019B1B6818465B
:107BF40000F0ABF80346002B04D10B494FF4F670A8
:107C0400FFF706FC019B1B681F2B02D84FF0A04313
:107C140006E0019B1B6803F01F02019B1A60034BE3
:107C2400184603B05DF804FB2C2903000003005040
:107C340000B585B0019001AB1846FFF7D3FF039060
:107C4400019B012202FA03F31946039800F069F834
:107C540000BF05B05DF804FB00B585B0019001AB31
:107C64001846FFF7BFFF0390019B012202FA03F3BA
:107C74001946039800F05FF800BF05B05DF804FBF7
:107C840000B585B0019001AB1846FFF7ABFF039038
:107C9400039BD3F804350293029BDA43019B012131
:107CA40001FA03F31A40039BC3F80825019B012240
:107CB4009A40029B1A40039BC3F80C2500BF05B0F1
:107CC4005DF804FB00B583B001900091009B002B8C
:107CD40003D10198FFF7C0FF02E00198FFF7A8FF66
:107CE40000BF03B05DF804FB00B585B0019001ABA3
:107CF4001846FFF777FF0390039800F00AF802464E
:107D0400019B22FA03F303F00103184605B05DF862
:107D140004FB82B00190019BD3F80435184602B0ED
:107D2400704782B001900091019B009AC3F8082526
:107D340000BF02B0704782B001900091019B009A8D
:107D4400C3F80C2500BF02B0704784B00190019BBA
:107D54005B09029300230393029B002B03D0029B35
:107D6400012B04D007E04FF0FF33039303E040F20C
:107D7400FF33039300BF019B03F01F030193039A96
:107D8400019B22FA03F303F00103002B14BF012328
:107D94000023DBB2184604B07047000000B585B07C
:107DA4000190019B032B03D911493A20FFF730FBC3
:107DB400104A019B13441B781846FFF795FF0346AE
:107DC400002B14BF012300238DF80F309DF80F30D2
:107DD400002B14BF01230023DBB283F00103DBB2C9
:107DE40003F00103DBB2184605B05DF804FB00BFE5
:107DF4005C290300CC29030000B583B00190019BEA
:107E0400032B03D907494120FFF702FB064A019BD4
:107E140013441B7800211846FFF754FF00BF03B03A
:107E24005DF804FB5C290300CC29030000B583B092
:107E34000190019B032B03D907494720FFF7E8FA78
:107E4400064A019B13441B7801211846FFF73AFFA9
:107E540000BF03B05DF804FB5C290300CC290300D8
:107E640000B583B00023019305E00198FFF7DEFF1E
:107E7400019B01330193019B032BF6D900BF00BF83
:107E840003B05DF804FB00B583B00023019305E063
:107E94000198FFF7B1FF019B01330193019B032B71
:107EA400F6D900BF00BF03B05DF804FB00B583B092
:107EB4000190019B032B03D907495F20FFF7A8FA20
:107EC400064A019B13441B781846FFF7D9FE00BFEE
:107ED40003B05DF804FB00BF5C290300CC29030058
:107EE40000B583B00C4B1B78002B0FD000230193FB
:107EF40008E0019B022B02D00198FFF797FF019B3A
:107F040001330193019B032BF3D901E0FFF7A8FF91
:107F140000BF03B05DF804FB483000202DE9D04FCA
:107F240092B003468DF83F30002311930023109341
:107F3400CC4B1B78002B04D0CA4A00231370FFF7E4
:107F4400CFFF9DF83F30172B00F23F8201A252F879
:107F540023F000BFB97F0200D17F0200D17F02006D
:107F64006D800200098102008581020019820200ED
:107F74003982020049820200758202009382020063
:107F8400B1820200CF820200DD820200DD820200A3
:107F9400DD820200DD820200DD82020071830200C4
:107FA4007F83020093830200A7830200C18302003F
:107FB400C1830200FFF794FFAB4B184605F0A6FB04
:107FC4001190AA4A9DF83F301370FFE10020FFF79B
:107FD400E5FE0346002B0DD00020FFF727FF9DF898
:107FE4003F30022B02D14FF4E16301E04FF47A6396
:107FF40010930BE00020FFF7FFFE9DF83F30022BAB
:1080040001D1C82301E04FF4C8731093974A9DF837
:108014003F301370944C109B0022009301924FF058
:1080240000024FF00003DDE900673946CB03314617
:1080340043EA51433146CA0312F57A71029143F17E
:10804400000303934FF4FA624FF00003DDE90201E9
:1080540009F09EFE02460B461346002219462046AE
:1080640005F0FCFA1190B1E10020FFF797FE0346FA
:10807400002B0DD00020FFF7D9FE9DF83F30032BD5
:1080840002D14FF4487301E04FF47A6310930BE08C
:108094000020FFF7B1FE9DF83F30032B01D1C82328
:1080A40001E04FF4C8731093704A9DF83F30137089
:1080B4006D4C109B0022049305924FF000024FF088
:1080C4000003DDE904673946CB03314643EA5143F3
:1080D4003146CA0312F57A71069143F100030793FE
:1080E4004FF4FA624FF00003DDE9060109F050FE97
:1080F40002460B46134600221946204605F0AEFA06
:10810400119063E10020FFF749FE0346002B06D0DF
:108114000020FFF78BFE4FF47A63109305E00020F4
:10812400FFF76AFE4FF4C8731093504A9DF83F302E
:1081340013704D4C109B00229A4693464FF0000258
:108144004FF000034FEACB3343EA5A434FEACA32B3
:1081540012F57A71089143F1000309934FF4FA621E
:108164004FF00003DDE9080109F012FE02460B4658
:10817400134600221946204605F070FA119025E1B5
:108184000020FFF70BFE0346002B0CD00020FFF766
:108194004DFE9DF83F30052B01D1C82301E04FF47B
:1081A4007A6310930BE00020FFF726FE9DF83F3022
:1081B400052B01D1C82301E04FF4C87310932B4A57
:1081C4009DF83F301370284C109B0022984691462E
:1081D4004FF000024FF000034FEAC93343EA58431B
:1081E4004FEAC83212F57A710A9143F100030B93F6
:1081F4004FF4FA624FF00003DDE90A0109F0C8FD0B
:1082040002460B46134600221946204605F026FA7C
:108214001190DBE00020FFF749FE144A9DF83F303F
:108224001370114B002240F26661184605F016FAED
:108234001190CBE00020FFF7DFFD0C4A9DF83F30A2
:108244001370C3E0074B01221A700120FFF72EFEC2
:10825400054B002240F26661184605F0FFF91190C3
:10826400B4E000BF41300020182B00204030002033
:10827400594B01221A700120FFF718FE574B0022B8
:108284004FF40051184605F0E9F911909EE0524B65
:1082940001221A700120FFF709FE504B002240F220
:1082A4006661184605F0DAF911908FE04A4B012215
:1082B4001A700120FFF7FAFD484B00224FF40051D9
:1082C400184605F0CBF9119080E0FFF7DCFD444A35
:1082D4009DF83F30137079E0424B184605F016FACA
:1082E40011909DF83F30C3F111031093109B002BA4
:1082F40035D0119B002B32D1109B012B28D9394C3E
:10830400109B9BB21A46C82302FB03F3DA171E46DE
:1083140017464FF000024FF00003FB0343EA5643B5
:10832400F20312F57A710C9143F100030D934FF4AB
:10833400FA624FF00003DDE90C0109F029FD024661
:108344000B46134600221946204605F087F9119082
:108354000220FFF751FD244B01221A7036E002205F
:10836400FFF764FD204B00221A702FE0FFF7B8FDE1
:108374001B4A9DF83F30137028E0FFF7B1FD002041
:10838400FFF73AFD164A9DF83F3013701EE0FFF7E1
:10839400A7FD0120FFF730FD114A9DF83F3013700F
:1083A40014E0FFF79DFD0020FFF726FD0120FFF7F5
:1083B40023FD0B4A9DF83F30137007E0FFF763FD80
:1083C400074A9DF83F30137000E000BF119B184628
:1083D40012B0BDE8D08F00BF41300020182B002020
:1083E40040300020382B00204830002000B585B0F4
:1083F40003468DF8073000230393084B1B6803F0F2
:108404000103002B05D09DF807301846FFF786FDC1
:108414000390039B184605B05DF804FB443000202C
:1084240084B001900B468DF8033013468DF802306A
:1084340000230393019B032B3CD89DF80230012BAE
:108444000BD19DF80330012B04D1019BDBB20E3319
:10845400DBB200E000238DF802309DF80330022BDC
:108464000FD0022B23DC002B16D0012B1FD1144973
:10847400019A13465B0013440B449DF802201A70C2
:108484001AE00F49019A13465B0013440B4401336D
:108494009DF802201A700FE00949019A13465B0007
:1084A40013440B4402339DF802201A7004E007239E
:1084B400039301E007230393039B184604B070471A
:1084C4004C30002000B583B0012200210020FFF7CA
:1084D400A7FF0190019B002B04D0019B072B01D027
:1084E400019B1CE0072202210120FFF799FF019064
:1084F400019B002B04D0019B072B01D0019B0EE0B4
:10850400042202210020FFF78BFF0190019B002B26
:1085140004D0019B072B01D0019B00E000231846E7
:1085240003B05DF804FB00B583B0012202210020F2
:10853400FFF776FF0190019B002B04D0019B072BD2
:1085440001D0019B1CE0072202210120FFF768FFF4
:108554000190019B002B04D0019B072B01D0019BB0
:108564000EE00A2200210020FFF75AFF0190019B30
:10857400002B04D0019B072B01D0019B00E00023BA
:10858400184603B05DF804FB00B585B00190009176
:10859400019B1B88102B02D0112B18D02FE01A4BF3
:1085A4001B68002B0DD1FFF78DFF0390039B002B5D
:1085B40007D0164B1B68002B03D0144B1B68039881
:1085C4009847114B1B6801330F4A136017E00E4B99
:1085D4001B68013B0C4A13600B4B1B68002B0DD12D
:1085E400FFF7A1FF0390039B002B07D0074B1B68E9
:1085F400002B03D0054B1B680398984700BF00BFAE
:1086040005B05DF804FB00BF5C300020583000204A
:10861400BFF34F8F00BF064BDB6803F4E0620449ED
:10862400044B1343CB60BFF34F8F00BF00BFFDE784
:1086340000ED00E00400FA0574DF704700BF18463F
:1086440000B587B00190134A019B136004F08EFFBC
:108654000590059B0493049B002B04D00E4A5E21D5
:10866400049804F0DBFB0D4A01210D4804F0BCFF23
:108674000590059B0393039B002B04D0064A6221BB
:10868400039804F0CBFB00F04FF800BF07B05DF88F
:1086940004FB00BF60300020E4290300AD87020022
:1086A400E029030000B585B00D4809F0C9FA4FF47C
:1086B400F02303930B4B00220399184604F0CEFFDA
:1086C4000290029B0193019B002B04D0064A852152
:1086D400019804F0A3FB00BF05B05DF804FB00BFE4
:1086E400C42A0300582B0020E429030000B583B0FA
:1086F4000A4809F0A5FA0A4B184605F007F8019054
:10870400019B0093009B002B04D0064A9221009801
:1087140004F084FB00BF03B05DF804FBEC2A030003
:10872400582B0020E429030000B585B06B211248C2
:1087340000F0A8F8114A01AB1268114619800233FF
:10874400120C1A7003238DF8053001AB0C4A19463C
:10875400022004F0ADF80390039B0293029B002BCC
:1087640004D0084AB721029804F058FB00F056F8E8
:1087740000BF05B05DF804FBD0290300082B0300FB
:108784008D870200E429030000B583B001900B46F5
:108794008DF80330034809F053FA00F047F8FFF767
:1087A40037FF00BF0C2B030000B583B0154809F058
:1087B40047FAFFF7B9FF144B1B6893F85430184677
:1087C400FFF73AFF0190019B002B16D00F4A104B84
:1087D400D31ADB081B0443F00103019A0D49184620
:1087E40007F058FB019B0093009B002B05D00A4A1D
:1087F4004FF48271009804F011FB00BF03B05DF8E0
:1088040004FB00BF282B030060300020B8270300BE
:1088140088270300482B0300E429030008B501213D
:10882400022004F0C3F800BF08BD000008B56B21A6
:10883400034800F098F8022004F03CF900BF08BD9A
:10884400D029030000B589B0059003921A460B465F
:108854008DF8133013468DF8123000230793059BCF
:10886400181D9DF812209DF813109DF828300093D0
:108874001346039A09F0FAF80790079B184609B0C3
:108884005DF804FB00B58DB003900B468DF80B30FA
:1088940046F61043ADF82C3040F65663ADF8283058
:1088A4005723ADF8243048F65843ADF8203040F64D
:1088B4005943ADF81C3047F65A73ADF8183048F2F6
:1088C4005B03ADF8143040F65E03ADF810300BAA2C
:1088D4009DF80B100023009302230398FFF7B2FFC7
:1088E4000AAA9DF80B100023009302230398FFF7B4
:1088F400A9FF09AA9DF80B100023009302230398F3
:10890400FFF7A0FF08AA9DF80B1000230093022391
:108914000398FFF797FF07AA9DF80B100023009315
:1089240002230398FFF78EFF06AA9DF80B1000237D
:10893400009302230398FFF785FF05AA9DF80B1007
:108944000023009302230398FFF77CFF04AA9DF8F9
:108954000B100023009302230398FFF773FF00BF5B
:108964000DB05DF804FB00B58DB003900B468DF897
:108974000B301023ADF82C305623ADF82830572394
:10898400ADF824305823ADF820305923ADF81C300D
:108994005A23ADF818305B23ADF814305E23ADF8DC
:1089A40010300BAA9DF80B100023009302230398A8
:1089B400FFF748FF0AAA9DF80B1000230093022337
:1089C4000398FFF73FFF09AA9DF80B1000230093BB
:1089D40002230398FFF736FF08AA9DF80B10002323
:1089E400009302230398FFF72DFF07AA9DF80B10AD
:1089F4000023009302230398FFF724FF06AA9DF89F
:108A04000B100023009302230398FFF71BFF05AA12
:108A14009DF80B100023009302230398FFF712FF25
:108A240004AA9DF80B100023009302230398FFF778
:108A340009FF00BF0DB05DF804FB0000BFF34F8FCA
:108A440000BF064BDB6803F4E0620449044B1343A4
:108A5400CB60BFF34F8F00BF00BFFDE700ED00E028
:108A64000400FA0582B0114B1B680193104B1B687C
:108A74000093019B0D2B14D1009B022B0DD0009B66
:108A8400022B0CD8009B002B03D0009B012B02D09F
:108A940005E0012306E0012304E0012302E00123B1
:108AA40000E00023184602B0704700BF30010010F8
:108AB4003401001082B0114B1B680193104B1B68EA
:108AC4000093019B0D2B14D1009B022B0DD0009B16
:108AD400022B0CD8009B002B03D0009B012B02D04F
:108AE40005E0012306E0012304E0012302E0012361
:108AF40000E00023184602B0704700BF30010010A8
:108B04003401001082B0114B1B680193104B1B6899
:108B14000093019B0D2B14D1009B022B0DD0009BC5
:108B2400022B0CD8009B002B03D0009B012B02D0FE
:108B340005E0012306E0012304E0012302E0012310
:108B440000E00023184602B0704700BF3001001057
:108B54003401001082B0114B1B680193104B1B6849
:108B64000093019B0D2B14D1009B022B0DD0009B75
:108B7400022B0CD8009B002B03D0009B012B02D0AE
:108B840005E0002306E0002304E0012302E00123C2
:108B940000E00023184602B0704700BF3001001007
:108BA4003401001008B5FFF7D5FF0346002B07D0AA
:108BB4004FF010234FF08042D3F80832C2F85835F2
:108BC40000BF08BD00BF044BD3F80034002BFAD01B
:108BD40000BF00BF704700BF00E0014000B583B094
:108BE4000190054A019BC2F80435FFF7EBFF00BF73
:108BF40003B05DF804FB00BF00E00140024B034AF0
:108C04001A6000BF704700BF782B00200090D0038B
:108C140008B5FFF727FF0346002B0ED04FF0804323
:108C24000022C3F80C214FF080430022C3F8102126
:108C34004FF080430022C3F83825FFF73BFF03467B
:108C4400002B76D04FF080535E4AD3F80434C2F838
:108C540020354FF080535B4AD3F80834C2F82435EA
:108C64004FF08053574AD3F80C34C2F828354FF0EC
:108C74008053544AD3F81034C2F82C354FF0805343
:108C8400504AD3F81434C2F830354FF080534D4A6B
:108C9400D3F81834C2F834354FF08053494AD3F826
:108CA4001C34C2F840354FF08053464AD3F8203480
:108CB400C2F844354FF08053424AD3F82434C2F802
:108CC40048354FF080533F4AD3F82834C2F84C3526
:108CD4004FF080533B4AD3F82C34C2F850354FF050
:108CE4008053384AD3F83034C2F854354FF08053A7
:108CF400344AD3F83434C2F860354FF08053314AE3
:108D0400D3F83834C2F864354FF080532D4AD3F881
:108D14003C34C2F868354FF080532A4AD3F84034C3
:108D2400C2F86C354FF08053264AD3F84434C2F865
:108D34007035FFF7E7FE0346002B0DD04FF080435C
:108D4400D3F8003403F00103002B05D04FF0804327
:108D54006FF00102C3F800241B4BD3F888301A4A81
:108D640043F47003C2F88830BFF34F8F00BFBFF3E2
:108D74006F8F00BFFFF716FF4FF01023D3F80032B8
:108D8400002B05DB4FF01023D3F80432002B15DA47
:108D94000120FFF723FF4FF010231222C3F8002213
:108DA400FFF710FF4FF010231222C3F80422FFF73D
:108DB40009FF0020FFF712FFFFF740FEFFF71EFF39
:108DC40000BF08BD00C0004000ED00E06DDF70474B
:108DD40000BF184679DF704700BF18467DDF704733
:108DE40000BF184664DF704700BF184682B00346D0
:108DF4000091ADF80630BDF80630DAB2009B1A7067
:108E0400BDF806301B0A9AB2009B0133D2B21A7025
:108E14000223184602B0704700B589B0039002914E
:108E24001346ADF80630029B1B8803F10902BDF816
:108E340006309A4201D90C2353E004AB1846FFF7DD
:108E4400C5FF0790079B0693069B002B01D0069B4A
:108E540047E0029B1B881A46039B134408221A709E
:108E6400029B1B8801339AB2029B1A80029B1B88C7
:108E74001A46039B13441B221A70029B1B8801335E
:108E84009AB2029B1A80029B1B881A46039B98186D
:108E940004AB01330622194609F0D8FB029B1B8858
:108EA40006339AB2029B1A809DF8103023F0010316
:108EB400DBB2002B07D1029B1B881A46039B134489
:108EC40000221A7006E0029B1B881A46039B134477
:108ED40001221A70029B1B8801339AB2029B1A80EA
:108EE4000023184609B05DF804FB00B589B003906F
:108EF40002910192ADF80230039B1B78012B05D13E
:108F0400039B5B78002B01D1072391E0019B1B8815
:108F14009A1CBDF802309A420ED8039B1B78012B91
:108F24000CD1019B1B881A46039B5B7813449A1C43
:108F3400BDF802309A4201D90C2379E0019B1B88C9
:108F4400BDF80220D31A9BB2023BADF81C30BDF829
:108F54001C30ADF81230019B1B880233029A134473
:108F64000DF1120211461846FFF738FF0690069BD2
:108F74000593059B002B01D0059B59E0039B1B78AF
:108F8400022B06D0039B5B781A46BDF812309A4236
:108F940009D3BDF81230BDF81C209A4203D309232B
:108FA4008DF81F3016E008238DF81F30039B1B78C3
:108FB400012B0BD1039B5B781A46BDF81C309342FE
:108FC40004D3039B5B78ADF8123003E0BDF81C308A
:108FD400ADF81230BDF81230FE2B01D90C2327E076
:108FE400BDF81230DAB2019B1B881946029B0B4470
:108FF4000132D2B21A70019B1B8801339AB2019BD1
:109004001A80019B1B881A46029B13449DF81F205B
:109014001A70019B1B8801339AB2019B1A80019B31
:109024001A88BDF8123013449AB2019B1A800023A7
:10903400184609B05DF804FB00B589B003900291AD
:109044001346ADF80630029B1B881A1DBDF8063086
:109054009A4201D90C233AE00DF116031846FFF7A2
:10906400B9FE0790079B0693069B002B01D0069B35
:109074002DE0029B1B881A46039B134403221A709B
:10908400029B1B8801339AB2029B1A80029B1B88A5
:109094001A46039B134419221A70029B1B8801333E
:1090A4009AB2029B1A80BDF81620029B1B881946AF
:1090B400039B0B4419461046FFF798FE03461A46D5
:1090C400029B1B8813449AB2029B1A800023184601
:1090D40009B05DF804FB84B0029101921A4603467C
:1090E4008DF80F301346ADF80C30019B1B88DA1C49
:1090F400BDF80C309A4201D90C2328E0019B1B884F
:109104001A46029B134402221A70019B1B880133E6
:109114009AB2019B1A80019B1B881A46029B134436
:1091240001221A70019B1B8801339AB2019B1A8099
:10913400019B1B881A46029B13449DF80F201A704A
:10914400019B1B8801339AB2019B1A8000231846A5
:1091540004B0704784B0029101921A4603468DF818
:109164000F301346ADF80C30019B1B88DA1CBDF898
:109174000C309A4201D90C2328E0019B1B881A4623
:10918400029B134402221A70019B1B8801339AB27A
:10919400019B1A80019B1B881A46029B13440A22D6
:1091A4001A70019B1B8801339AB2019B1A80019BA0
:1091B4001B881A46029B13449DF80F201A70019BCA
:1091C4001B8801339AB2019B1A800023184604B00D
:1091D400704700B58FB0039001930B468DF80B30A8
:1091E40013468DF80A3000238DF83330109B1B880A
:1091F400ADF8303000230D9370E0039B5A680D9B4B
:109204009B001A4405AB106818600DF11B0105ABF7
:1092140000221846FFF7E6FD0A900A9B0993099B72
:10922400002B01D0099B7BE09DF81B309DF80A20A0
:109234009A4250D19DF83330002B01D0002300E036
:1092440002238DF82330109B1B881A469DF81B308F
:109254001A449DF823301A44BDF844309A4201DD83
:109264000C235DE09DF8333083F00103DBB2002B67
:1092740016D0109B1B8801339AB2109B1A80109B46
:109284001B881A46019B13449DF80B201A70109BEF
:109294001B8801339AB2109B1A8001238DF8333056
:1092A400109B1B881A46019B1A440DF11B0105AB48
:1092B4001846FFF797FD0A900A9B0793079B002B1C
:1092C40001D0079B2CE0109B1B889DF81B201344A6
:1092D4009AB2109B1A800D9B01330D93039B1B883C
:1092E4001A460D9B934288DB9DF83330002B16D031
:1092F400109B1A88BDF83030D31A9BB2013BADF8ED
:109304002E30BDF82E30FF2B01D90C2308E0BDF818
:109314003030019A1344BDF82E20D2B21A700023C3
:1093240018460FB05DF804FB00B58BB005900393AD
:109334000B468DF8133013468DF812309DF8131038
:10934400BDF8343001930C9B0093039B02220598D3
:10935400FFF73FFF0990099B0893089B002B01D05E
:10936400089B14E09DF81210BDF8343001930C9B57
:109374000093039B10220598FFF72BFF0990099B8C
:109384000793079B002B01D0079B00E0002318469E
:109394000BB05DF804FB82B00190019B1B88052B88
:1093A4000AD9019B1B88B3F5486F07D9019B1B8819
:1093B4004FF6FF72934201D0072325E0019B5B889F
:1093C400052B0AD9019B5B88B3F5486F07D9019B2C
:1093D4005B884FF6FF72934201D0072314E0019B90
:1093E4001B884FF6FF7293420DD0019B5B884FF6AA
:1093F400FF72934207D0019B1A88019B5B889A42B3
:1094040001D9072300E00023184602B0704700B5D5
:1094140087B0039002910192ADF80230019B1B8842
:109424009A1DBDF802309A4201D90C234BE00398EF
:10943400FFF7B1FF0590059B0493049B002B01D01B
:10944400049B40E0019B1B881A46029B134405229F
:109454001A70019B1B8801339AB2019B1A80019BED
:109464001B881A46029B134412221A70019B1B8804
:1094740001339AB2019B1A80039B1A88019B1B88B3
:109484001946029B0B4419461046FFF7AFFC0346EE
:109494001A46019B1B8813449AB2019B1A80039BB2
:1094A4005A88019B1B881946029B0B441946104697
:1094B400FFF79CFC03461A46019B1B8813449AB28F
:1094C400019B1A800023184607B05DF804FB00B521
:1094D40087B0039002910192ADF80230039B9B8800
:1094E40002330593019B1B881A46059B13449A1C5F
:1094F400BDF802309A4201D90C2353E0059BFE2BA0
:1095040001D90C234EE0059BDAB2019B1B88194656
:10951400029B0B440132D2B21A70019B1B880133A7
:109524009AB2019B1A80019B1B881A46029B134422
:10953400FF221A70019B1B8801339AB2019B1A8087
:10954400039B1A88019B1B881946029B0B441946EE
:109554001046FFF74BFC03461A46019B1B88134435
:109564009AB2019B1A80039B9B88002B19D0039B02
:109574009B68002B01D1072314E0019B1B881A462A
:10958400029B9818039B9968039B9B881A4609F0D1
:109594005DF8019B1A88039B9B8813449AB2019B34
:1095A4001A800023184607B05DF804FB00B589B0A3
:1095B400039002910192ADF80230039B9B6A002B49
:1095C40001D1072371E000238DF81F3065E0039B70
:1095D400996A9DF81F2013465B0013449B000B44BB
:1095E4000693069B9B8802330593059BFE2B01D9AA
:1095F4000C235AE0059BDAB2019B1B881946029B97
:109604000B440132D2B21A70019B1B8801339AB207
:10961400019B1A80019B1B881A46029B1344162245
:109624001A70019B1B8801339AB2019B1A80069B16
:109634001A88019B1B881946029B0B441946104645
:10964400FFF7D4FB03461A46019B1B8813449AB2C6
:10965400019B1A80069B9B88002B19D0069B9B6854
:10966400002B01D1072320E0019B1B881A46029B93
:109674009818069B9968069B9B881A4608F0E6FF93
:10968400019B1A88069B9B8813449AB2019B1A80FB
:109694009DF81F3001338DF81F30039B93F82C3055
:1096A4009DF81F209A4292D30023184609B05DF812
:1096B40004FB00B595B00590049103920023139325
:1096C400039B1B88ADF84A30039B00221A80059B3C
:1096D40093F82D30002B0ED0BDF84A301A4603996A
:1096E4000498FFF799FB1390139B1193119B002B84
:1096F40001D0119BD8E0059B9B78002B0ED0BDF8C0
:109704004A301A4603990498FFF796FC1390139B6A
:109714001093109B002B01D0109BC5E0059BDB78B8
:10972400002B10D0059BDB7858B2BDF84A30039A61
:109734000499FFF7D0FC1390139B0F930F9B002BFE
:1097440001D00F9BB0E0059B5B68002B11D0059BFB
:109754005B6893F90000BDF84A30039A0499FFF757
:10976400F9FC1390139B0E930E9B002B01D00E9BC0
:109774009AE0059B1B89002B14D0059B03F108007C
:10978400BDF84A300193039B0093049B06220221F7
:10979400FFF7CAFD1390139B0D930D9B002B01D073
:1097A4000D9B81E0059B1B8A002B14D0059B03F1C4
:1097B4001000BDF84A300193039B0093049B0722D9
:1097C4000321FFF7B1FD1390139B0C930C9B002B0B
:1097D40001D00C9B68E0059B1B8B002B14D0059BD0
:1097E40003F11800BDF84A300193039B0093049BD6
:1097F40015221421FFF798FD1390139B0B930B9BD9
:10980400002B01D00B9B4FE0059B1B6A002B0FD054
:10981400059B186ABDF84A30039A0499FFF7F7FDCF
:109824001390139B0A930A9B002B01D00A9B3BE0E5
:10983400059B5B6A002B0FD0059B586ABDF84A3024
:10984400039A0499FFF743FE1390139B0993099B12
:10985400002B01D0099B27E0059B93F82C30002BAB
:109864000ED0BDF84A30039A04990598FFF79EFE7E
:109874001390139B0893089B002B01D0089B13E0C3
:10988400059B1B78002B0ED0BDF84A30039A04992F
:109894000598FFF72AFB1390139B0793079B002B54
:1098A40001D0079B00E0139B184615B05DF804FB3C
:1098B40086B0039001921A460B46ADF80A3013465F
:1098C4008DF80930039B002B02D0019B002B01D1A2
:1098D40000235BE00023ADF816300CE0BDF8163031
:1098E400039A13441B781A46BDF8163013449BB2EE
:1098F4000133ADF81630BDF816305A1CBDF80A30E5
:109904009A420FDA019B1B88BDF816209A42E5D3D0
:10991400BDF816300133039A13441B789DF80920CF
:109924009A42DBD1BDF81620BDF80A309A4201D321
:1099340000232BE0BDF816300233ADF81430BDF827
:109944001630039A13441B78002B07D0BDF8163049
:10995400039A13441B78013B9BB200E00023ADF84B
:109964001230BDF81230002B08D0BDF81420BDF819
:1099740012301A44BDF80A309A4201DD002305E092
:10998400019BBDF814201A80BDF81230184606B0A9
:10999400704700B585B001900B46ADF80230134610
:1099A4008DF801300023ADF80C309DF8013003AA86
:1099B400BDF802100198FFF77BFF0346ADF80E30A7
:1099C400BDF80E30002B01D1002304E0BDF80C30AB
:1099D4001A46019B1344184605B05DF804FB72DF78
:1099E400704700BF184673DF704700BF184682B047
:1099F4000190019B93F83034184602B0704784B04C
:109A04000190002303930AE0019A039B13441B78FB
:109A1400002B01D0012306E0039B01330393039B36
:109A2400052BF1D90023184604B0704782B00346D1
:109A34008DF807309DF807305A1C074B83FB02133F
:109A44005910D317C91A0B469B000B44D11ACBB239
:109A5400184602B0704700BF6766666682B0019020
:109A64000091009BDB7B012B04D1009B9A88019B16
:109A7400A3F8242400BF02B0704700B585B001905C
:109A84000091019B002283F82E24009B9A88019B5D
:109A9400B3F824349A4216D1019B1B7983F0010355
:109AA400DBB2002B0FD00121019800F0ABFA039038
:109AB400039B002B07D0019B9B6B002B03D0019BC6
:109AC4009B6B0398984700BF05B05DF804FB00B595
:109AD40085B001900091009B1B88262B1ED1009B12
:109AE4001B7A012B03D0009B1B7A022B17D1019BFD
:109AF4009B781846FFF79AFF03461946019800F031
:109B040081FA0390039B002B09D0019B9B6B002BD4
:109B140005D0019B9B6B0398984700E000BF05B0FC
:109B24005DF804FB00B585B001900B468DF8033059
:109B3400019B03F227431846FFF761FF03468DF8A4
:109B44000F309DF80330013B032B33D801A252F8A8
:109B540023F000BF699B02008D9B0200A19B0200C1
:109B6400AD9B0200019B9B79002B0DD0019B93F8C8
:109B7400243083F00103DBB2002B05D09DF80F30B5
:109B8400002B01D0012316E0019BDB79002B05D0CB
:109B94009DF80F30002B01D002230CE0019B1B7AAF
:109BA400002B01D0032306E0019B5B7A002B01D03C
:109BB400042300E00023184605B05DF804FB00BF51
:109BC40082B001900091019B012283F83120019B16
:109BD4000022C3F82024019B03F22642009B5A6012
:109BE400009B00229A60009B02221A70009B802234
:109BF4009A810023184602B0704782B00190009108
:109C0400019B022283F83120019B93F82430002B1E
:109C140003D0009B07221A7002E0009B03221A70F3
:109C2400019B1B699AB2009B9A81019B0022C3F895
:109C34002024019B03F22642009B5A60019BDA68B0
:109C4400009B9A600023184602B0704700B583B0A9
:109C54000190019B5B79002B0FD0019B93F82E346C
:109C640083F00103DBB2002B07D00198FFF7BFFE9E
:109C74000346002B01D0012300E0002303F001037D
:109C8400DBB2184603B05DF804FB00B585B0019063
:109C94000B468DF80330019BD3F81004019BB3F8F5
:109CA400143401221946FFF774FE0390039B002B22
:109CB40003D0039B9DF803201A70019B03F1540009
:109CC400019B03F58261019B3C331A46FFF787FE33
:109CD4000346184605B05DF804FB00B585B0019055
:109CE4000091019B5A69009B9A60019B9B699AB2FF
:109CF400009B9A81019B93F82430002B04D0019B94
:109D0400062283F83C2003E0019B012283F83C20D7
:109D14000198FFF79BFF0346002B13D0009B022200
:109D24001A7504210198FFF7B0FF0390039B029377
:109D3400029B002B01D0029B0FE0019B052283F8BC
:109D4400312003E0019B032283F83120019B03F5BA
:109D54008262019BC3F820240023184605B05DF8F5
:109D640004FB00B585B001900091019BDA69009B6A
:109D74009A60019B1B6A9AB2009B9A81019B93F89B
:109D84002430002B04D0019B062283F83C2003E0FE
:109D9400019B012283F83C200198FFF757FF0346FB
:109DA400002B13D0009B02221A7504210198FFF79F
:109DB4006CFF0390039B0293029B002B01D0029B38
:109DC4000FE0019B062283F8312003E0019B04226B
:109DD40083F83120019B03F58262019BC3F82024A0
:109DE4000023184605B05DF804FB82B00190019B86
:109DF4009B78002B06D0019B93F82030002B01D0D8
:109E0400002300E00123184602B0704784B001909B
:109E1400019B93F82430002B03D0EE23ADF80E30D1
:109E240002E01F23ADF80E30BDF80E30184604B022
:109E3400704782B001900B468DF80330019B9DF86A
:109E4400032083F8302000BF02B0704730B587B0DC
:109E540001900091009B002B02D0019B002B01D1AB
:109E64000E23B8E0009B78331846FFF7BEFF034685
:109E740083F00103DBB2002B01D00723ABE0019B8D
:109E840000229A70019A009B141D03F178050FCDEE
:109E94000FC40FCD0FC495E8070084E80700019BA9
:109EA400002283F83020009BD3F8A420019B5A633E
:109EB400009BD3F8A820019B9A63019B4FF6FF7285
:109EC400A3F82424019B03F58262019BC3F8202498
:109ED400019B03F2264307220021184608F0E8FB01
:109EE400019B1B7883F00103DBB2002B03D0019BA1
:109EF400FF2283F85420019B03F15502019BC3F810
:109F040010240198FFF782FF03461A46019BA3F829
:109F140014240098019B03F15501019B03F214439F
:109F24001A46FFF7C6FB0590059B0493049B002B80
:109F340001D0049B4FE0019B03F23122019BC3F843
:109F440018240198FFF762FF03461A46019BA3F801
:109F54001C24009B03F13C00019BD3F81814019BC3
:109F640003F21C431A46FFF7A4FB0590059B0393D9
:109F7400039B002B01D0039B2DE0019B012283F85E
:109F84005120019B9B699AB2019BA3F84820019B35
:109F9400012283F83C20019B00221A64019B0022C9
:109FA40083F85020019B5A69019B5A64019B03F179
:109FB4005400019B3C331A460021FFF710FD059025
:109FC400059B0293029B002B01D0029B03E0019BA3
:109FD40001221A70059B184607B030BD82B001906B
:109FE400019B1B68012B07D0019B1B68022B03D02C
:109FF400019B1B68042B01D1012300E000231846B8
:10A0040002B0704700B585B001900B468DF803305F
:10A01400019B1B7883F00103DBB2002B01D00823E2
:10A0240009E1019B9DF803209A70019B03F22643EA
:10A0340007220021184608F03BFB019B9B79002B6B
:10A0440003D0019B9B78012B0FD0019BDB79002B64
:10A0540003D0019B9B78012B07D0019BDB79002B5C
:10A0640014D0019B9B78022B10D1019B5B6B002BBE
:10A0740008D0019B012283F82D24019B5B6B0820EF
:10A08400984703E0019B002283F82D249DF80330B8
:10A0940019460198FFF746FD03461A46019B9A703C
:10A0A400019B5B6B002B20D0019B9B78032B03D07F
:10A0B400019B9B78042B18D1019B5B79002B14D056
:10A0C400019B93F82E3483F00103DBB2002B0CD0F8
:10A0D400019B002283F83024019B012283F82F2462
:10A0E400019B5B6B0720984703E0019B002283F8E8
:10A0F4002F24019B3C3318220021184608F0D8FA7B
:10A10400019B012283F83C20019B2C331846FFF766
:10A1140065FF0346002B06D0019BDB6ADAB2019B84
:10A1240083F8512003E0019B012283F85120019B15
:10A1340093F82430002B12D0019B28331846FFF7E4
:10A144004DFF0346002B06D0019B9B6ADAB2019BAC
:10A1540083F8522003E0019B012283F85220019BE3
:10A16400002283F85020019B9B78042B31D801A254
:10A1740052F823F0CDA102008DA102009DA102009E
:10A18400ADA10200BDA10200019B3C331946019818
:10A19400FFF716FD03901DE0019B3C33194601981F
:10A1A400FFF72BFD039015E0019B3C331946019802
:10A1B400FFF793FD03900DE0019B3C331946019892
:10A1C400FFF7CFFD039005E0019B002283F83120C7
:10A1D40000E000BF019B9B78002B20D0019B03F182
:10A1E4005400019BD3F82014019B3C331A46FFF71B
:10A1F400F6FB0390039B002B01D0039B1BE0019B08
:10A2040093F85420019B93F8303019461046FFF719
:10A21400EAFB0390039B002B01D0039B0BE0019B03
:10A224005B6B002B06D0019B5B6B019A92F831208B
:10A23400104698470023184605B05DF804FB00BF9C
:10A2440000B585B001900091009B0393019B1B888E
:10A25400262B10D0262B13DC102B02D0112B05D06B
:10A264000EE001990398FFF7F9FB0AE001990398BE
:10A27400FFF703FC05E001990398FFF728FC00E0D1
:10A2840000BF00BF05B05DF804FB75DF704700BF79
:10A29400184676DF704700BF18467ADF704700BF64
:10A2A40018467BDF704700BF1846000084B00346A1
:10A2B400ADF806300023039316E00F49039A1346C2
:10A2C4009B0013449B000B441B88BDF806209A4254
:10A2D40007D1039A13469B0013449B00064A134478
:10A2E40006E0039B01330393039B002BE5D000237B
:10A2F400184604B0704700BF8830002082B0019037
:10A304000B46ADF80230019BBDF802201A80019B78
:10A3140000221A72019B054903F10A020B4603CB82
:10A324001060516000BF02B0704700BFB830002019
:10A3340082B00190019B4FF6FF721A8000BF02B0F9
:10A34400704788B00390029111461A460B46ADF847
:10A3540006301346ADF80430039B9B881A46BDF8BB
:10A36400063013440793039B9B881946039B9B88E1
:10A37400BDF80620934228BF13469BB2CB1A06931E
:10A38400039BDB881A46BDF8043013440593039BF2
:10A39400DB881946039BDB88BDF80420934228BF61
:10A3A40013469BB2CB1A0493029B5A88039B1B88C7
:10A3B4009A4205D3029B5A88039B5B889A4201D92F
:10A3C40000231CE0029B9B881A46069B934205D8F7
:10A3D400029B9B881A46079B934201D200230EE0FE
:10A3E400029BDB881A46049B934205D8029BDB88B8
:10A3F4001A46059B934201D2002300E0012318462C
:10A4040008B0704700B583B00190064B9B69002BE0
:10A4140003D0044B9B690198984700BF03B05DF8D3
:10A4240004FB00BF9C30002000B585B003460091BA
:10A43400ADF80630BDF8063000991846FFF725FF41
:10A444000390039B002B05D0039B112B02D0039890
:10A45400FFF7D8FF039B002B0CBF01230023DBB2C3
:10A46400184605B05DF804FB00B589B00190019B66
:10A474000793079B9BB21846FFF718FF0690069BAD
:10A48400002B42D0069B1A7A224B1B7B9A4215D290
:10A49400079B9AB2069B0A3319461046FFF7C4FF7E
:10A4A40003468DF813309DF81330002B2DD0069BF6
:10A4B4001B7A0133DAB2069B1A7226E0069B00224D
:10A4C4001A72144B1B7C002B0FD0079B9BB23B21B1
:10A4D4001846FFF7DEFE0590059B002B05D0059B73
:10A4E400082B02D00598FFF78DFF0A4B5B69002B00
:10A4F4000BD000238DF80C30079B9BB2ADF80E30C7
:10A50400044B5B6903AA1046984700BF09B05DF885
:10A5140004FB00BF9C30002030B587B00190019B44
:10A52400002B01D10E2353E02B4A019B14461D46F8
:10A534000FCD0FC495E8070084E80700264B274A8F
:10A544001A60019B1B68002B11D0019B1B681846E5
:10A55400FFF7A3FE0490049B002B01D0049B37E07B
:10A56400019B1A681D4B1068516803C308E01B481F
:10A57400FFF797FE0490049B002B01D0049B27E077
:10A584000023059320E0059A13469B0013449B0087
:10A59400134A134403930398FFF7CAFE059B5B0118
:10A5A400104A1A44039B5A60039B04330E4A002149
:10A5B400184603F019F80490049B002B01D00323E0
:10A5C40006E0059B01330593059B002BDBD000239C
:10A5D400184607B030BD00BF9C300020B8300020C2
:10A5E40088300020683000206DA4020000B587B0D8
:10A5F40003460091ADF80630009B5B7A002B1AD11C
:10A60400009B1B7A002B03D1164B5B68059302E079
:10A61400144B9B680593009B5B68BDF80620059965
:10A62400184603F01BF80490049B002B16D00498E2
:10A63400FFF7E8FE12E0009B00221A72094B5B69E7
:10A64400002B0BD001238DF80C30BDF80630ADF88B
:10A654000E30044B5B6903AA1046984700BF07B04D
:10A664005DF804FB9C30002000B585B00190019B8F
:10A67400DB7B8DF80F30019B9B88ADF80C309DF887
:10A684000F30012B2CD14FF6FF70FFF70FFE029015
:10A69400029B002B03D10420FFF7B4FE21E0BDF898
:10A6A4000C3019460298FFF729FE029B03F10A00B9
:10A6B400019B03F110014FF6FF7340F2F312FFF711
:10A6C40040FE03461A46029B5A72074BDB89002B55
:10A6D40007D1BDF80C3002991846FFF787FF00E058
:10A6E40000BF05B05DF804FB9C30002000B587B0C6
:10A6F4000190019B9B88ADF81630BDF816301846C2
:10A70400FFF7D4FD0490049B002B0ED0049B5B68E0
:10A71400184602F0FBFF0390039B002B02D0039822
:10A72400FFF770FE0498FFF703FE00BF07B05DF863
:10A7340004FB000000B587B00190019B063305932C
:10A74400059B1A88194BDB899A422BD1059B5B899F
:10A75400022B27D1019B9B88ADF81230BDF8123033
:10A764001846FFF7A3FD0390039B002B1AD0059B0B
:10A774000C33184600F075FA0346002B06D0BDF8DA
:10A78400123003991846FFF731FF0BE0039B5B6817
:10A79400184602F0BBFF0290029B002B02D00298E5
:10A7A400FFF730FE00BF07B05DF804FB9C300020CB
:10A7B40000B585B00190019B9B88ADF80E30BDF8C3
:10A7C4000E301846FFF772FD0290029B002B15D045
:10A7D400029B03F10A00019B03F108014FF6FF738A
:10A7E40040F2F312FFF7ADFD03461A46029B5A727C
:10A7F400BDF80E3002991846FFF7F8FE00BF05B009
:10A804005DF804FB00B583B001900091019B1B88A7
:10A81400502B12D0502B18DC122B12D0122B14DC1C
:10A82400102B02D0112B04D00FE00198FFF71CFF6E
:10A834000CE00198FFF75AFF08E00198FFF77AFF50
:10A8440004E00198FFF7B4FF00E000BF00BF03B0CD
:10A854005DF804FB30B58FB00190009100230293A2
:10A86400009B002B1AD000230D9314E06B460D9926
:10A87400184603F088FD0346002B09D0029B5A1C9E
:10A8840002920D9A92B25B0038336B4423F82C2C5D
:10A894000D9B01330D930D9B132BE7D9019B1D4693
:10A8A40002AC0FCC0FC50FCC0FC594E8070085E8A8
:10A8B400070001980FB030BD00B583B00346ADF872
:10A8C4000630BDF80630132B01D900230CE0BDF887
:10A8D40006301946064803F025FDBDF80630194632
:10A8E400044803F01FFD0123184603B05DF804FB80
:10A8F400C8300020C430002000B585B00346ADF850
:10A904000630002303930DE0039B9B00094A134484
:10A914000433BDF806201146184603F01BFD039BC3
:10A9240001330393039B1D2BEED900BF00BF05B079
:10A934005DF804FBC030002000B583B00346ADF8D9
:10A944000630BDF806301946034803F003FD00BF86
:10A9540003B05DF804FB00BFC830002030B59BB0E5
:10A96400184B9B68DB431893164B5A6818AB114677
:10A97400184603F067FD189A6B4611461846FFF710
:10A9840069FF0DAC6D460FCD0FC40FCD0FC495E814
:10A99400070084E80700002319930BE0199B5B0070
:10A9A40068336B4433F8303C1846FFF7A5FF199B16
:10A9B400013319930D9B199A9A42EFD300BF00BF3C
:10A9C4001BB030BDC030002000B583B001900B46F1
:10A9D400ADF8023013468DF801309DF80130002B9C
:10A9E40006D0BDF802301946019803F09BFC05E03F
:10A9F400BDF802301946019803F0ACFC00BF03B067
:10AA04005DF804FB00B585B001900091019B9B8823
:10AA1400ADF80E30019B1B88103B0A2B00F2888096
:10AA240001A252F823F000BF59AA020095AA02001D
:10AA340035AB020035AB020035AB020035AB02008A
:10AA440035AB020035AB020035AB0200FFAA0200B1
:10AA5400A1AA0200FFF782FFBDF80E301846FFF7E7
:10AA64002BFF034683F00103DBB2002B05D0324AEF
:10AA7400F021042002F0D2F957E0019BDB7B022B8A
:10AA840053D1BDF80E3019462C4803F04BFC4CE072
:10AA9400BDF80E301846FFF74FFF49E0019B1B7AC3
:10AAA400C3F30313DBB28DF80D309DF80D30032B87
:10AAB4008CBF01230023DAB2BDF80E3019462048BA
:10AAC400FFF782FF9DF80D30022B8CBF012300237A
:10AAD400DAB2BDF80E3019461A48FFF775FF9DF833
:10AAE4000D30012B8CBF01230023DAB2BDF80E30E8
:10AAF40019461548FFF768FF1AE0019B1B7A002BE3
:10AB040015D1019B5B7AC3F3C003DBB2002B14BFE6
:10AB1400012300238DF80C309DF80C20BDF80E3075
:10AB240019460748FFF750FF01E000BF00E000BFEF
:10AB340000BF05B05DF804FB782B0300CC30002087
:10AB4400D8300020D4300020D030002000B583B0AD
:10AB54000346ADF80630BDF80630132B01D90023A7
:10AB640006E0BDF806301946034803F00CFC034622
:10AB7400184603B05DF804FBC430002000B583B070
:10AB84000346ADF80630BDF806301846FFF7DEFF81
:10AB94000346002B02D0BDF8063000E0142318460B
:10ABA40003B05DF804FB00B587B003900B46019237
:10ABB400ADF80A30019B002B01D10E2338E0019B34
:10ABC40000221A60039B002B01D10E2330E0039B6B
:10ABD4001B68002B01D10E232AE0039BDB8803F0C2
:10ABE40003039BB2002B01D0072321E0BDF80A30F8
:10ABF4001846FFF7C3FF03468DF817309DF817304A
:10AC0400142B01D1052313E0039B1B799DF8172016
:10AC14009A4201D304230BE0039B1B689DF8172081
:10AC24000399C98801FB02F21A44019B1A600023AC
:10AC3400184607B05DF804FB82B00190019B1B78B5
:10AC44001AB2019B01331B781BB21B021BB21343C4
:10AC54001BB29BB2184602B07047AADF704700BF10
:10AC6400184600B585B001900198FFF7E5FF03464B
:10AC7400ADF80E30BDF80E3003F00103002B14BF05
:10AC840001230023DBB2184605B05DF804FB000085
:10AC940082B0034600918DF80730009A137823F0B0
:10ACA4000F031370009A137823F0F00313709DF8C8
:10ACB4000730052B5BD801A252F823F0D9AC02006F
:10ACC400EFAC020009AD020023AD02003DAD02006D
:10ACD40057AD0200009A137823F00F031370009A03
:10ACE400137823F0F003137040E0009A13780121E5
:10ACF40061F303031370009A1378012161F30713BE
:10AD0400137033E0009A1378012161F30303137085
:10AD1400009A1378022161F30713137026E0009A56
:10AD24001378012161F303031370009A137803214C
:10AD340061F30713137019E0009A1378022161F389
:10AD440003031370009A1378012161F3071313703E
:10AD54000CE0009A1378022161F303031370009A44
:10AD64001378022161F30713137000BF00BF00BF03
:10AD740002B0704700B595B0034602910192ADF858
:10AD84000E30029B9B78002B03D101238DF81E30DB
:10AD940003E0029B9B788DF81E30029B1B88ADF864
:10ADA4001C3006AB03220021184607F081FC029BED
:10ADB4005B7C06AA11461846FFF76AFF029B9A7C41
:10ADC40006AB013319461046FFF762FF029BDA7B9C
:10ADD4009DF81A3062F3C3038DF81A30029B1A7C73
:10ADE4009DF81A3062F304138DF81A30029B1A7B13
:10ADF4009DF81A3062F300038DF81A30029B1B7D14
:10AE0400002B01D0022200E001229DF81A3062F3E7
:10AE140042038DF81A300DAB1C220021184607F0AE
:10AE240047FC029B5B7B03F01003DBB2002B06D1D3
:10AE3400029B5B7B03F02003DBB2002B24D004AB2A
:10AE440003220021184607F033FC029BDA7C04AB92
:10AE5400013319461046FFF71BFF9DF810300122FD
:10AE640062F303038DF810309DF81030012262F371
:10AE740007138DF810309DF81230012262F342035B
:10AE84008DF8123004AB1293029B5B7B8DF8343047
:10AE9400029B9B7B8DF8353008AB142200211846A9
:10AEA40007F006FC07AB089306AB0993029B9B884B
:10AEB400ADF82C30029B9B68002B06D0029BDB88EC
:10AEC400ADF82830029B9B680C93029B9B69002B76
:10AED4004FD005AB03220021184607F0E9FB029B83
:10AEE4009B691B88ADF83C30029B9B695B88ADF87D
:10AEF4003E30029B9B695B680E9305AB1193029BEA
:10AF04009B691B7B05AA11461846FFF7C1FE029BED
:10AF14009B695A7B05AB013319461046FFF7B8FE0F
:10AF2400029B9B699A7A9DF8163062F3C3038DF8ED
:10AF34001630029B9B69DA7A9DF8163062F304138B
:10AF44008DF81630029B9B691A7A9DF8163062F3CD
:10AF540000038DF81630029B9B699B7B002B01D06C
:10AF6400022200E001229DF8163062F342038DF8BC
:10AF74001630029BDB69002B02D0029BDB69109325
:10AF840008AA0DA9BDF80E00019BFFF766FE034653
:10AF9400184615B05DF804FB90DF704700BF1846F3
:10AFA400A5DF704700BF1846B5DF704700BF1846DD
:10AFB40082B00190019BF7221A80019B17225A80CC
:10AFC400019B00221A71019B00225A71019BFB22F2
:10AFD4009A71019B1B22DA7100BF02B07047000016
:10AFE40030B589B003460A46ADF806301346ADF8CD
:10AFF4000430BDF80430ADF81430BDF80430ADF8B9
:10B0040016300023ADF818300023ADF81A3003AB26
:10B0140000221A609A8003AA05A9BDF806301846D2
:10B02400FFF7BAFF0790079B002B39D01E4A1F4B2E
:10B03400D31ADB081B0443F00104BDF8065007983B
:10B0440004F064FA03462A461949204604F033FF03
:10B05400BDF80C30002B03D1BDF80E30002B0ED000
:10B06400114A124BD31ADB081B0443F00100BDF84C
:10B074000C301A46BDF80E300E4904F01CFFBDF822
:10B084001030002B0CD0084A084BD31ADB081B04E1
:10B0940043F00103BDF810200749184604F0FAFEF6
:10B0A400079B184609B030BDE0270300882703003A
:10B0B400042C0300502C0300902C030010B586B020
:10B0C40001900091009B9B88ADF80E30BDF80E30C6
:10B0D400DB00019A134406330593019B1A79059BFF
:10B0E4009A71009BDB7B012B02D0022B05D009E077
:10B0F400019B1A88059B1A8004E0019B5A88059BD2
:10B104001A8000BF059B1A88059B5B889A4226D942
:10B11400059B1A88BDF80E3011461846FFF740FF0C
:10B124000490049B002B03D1059B01225A7116E065
:10B13400049B112B03D1059B01221A710FE0114AC4
:10B14400114BD31ADB081B0443F00104049804F0E8
:10B15400DDF903461A460D49204604F09BFE059B83
:10B164009A79059BDB799A4208D9059B9B791A4603
:10B17400BDF80E3011461846FFF732FF00BF06B087
:10B1840010BD00BFE027030088270300E82C03005C
:10B1940000B583B001900091009B9B88DB00019A6D
:10B1A400134406331846FFF703FF00BF03B05DF8EE
:10B1B40004FB00B587B001900091009B9B88ADF81B
:10B1C4001630009B5B89ADF81430BDF81630DB00F7
:10B1D400019A134406330493049B1B88BDF814207E
:10B1E400934228BF13469AB2049B5A80049B5B88FF
:10B1F400172B38BF17239AB2049B5A80019B1B69F3
:10B20400002B15D0049B5B79002B11D040F67723DB
:10B21400ADF80830BDF81630ADF80A30049B5B88F1
:10B22400ADF80C30019B1B6902AA1146019898479E
:10B23400049B00225A71049B00221A7100BF07B0BC
:10B244005DF804FB10B588B001900091009B9B88C9
:10B25400ADF81A30009BDB88ADF81830BDF81A3011
:10B26400DB00019A134406330593BDF81830172BFD
:10B2740038BF1723ADF81830059B1B88BDF818207C
:10B28400934228BF13469AB2059B5A80059B00221D
:10B294001A71059B1A88BDF81A3011461846FFF733
:10B2A40083FE0790079B002B0FD0174A174BD31A26
:10B2B400DB081B0443F00104079804F027F9034654
:10B2C4001A461349204604F0E5FD059B5B79002BE3
:10B2D40016D1019B1B69002B13D040F67723ADF8E0
:10B2E4000C30BDF81A30ADF80E30059B5B88ADF814
:10B2F4001030019B1B6903AA11460198984700E08E
:10B3040000BF08B010BD00BFE0270300882703007A
:10B314001C2D030030B591B001900091009B04AC4A
:10B324001D1D0FCD0FC40FCD0FC495E8070084E891
:10B334000700BDF81030ADF83E30BDF81420BDF85C
:10B344003E30D1B2019ADB0013440A465A73019B82
:10B354001B69002B19D002AB00221A609A804DF6AB
:10B364007A23ADF80830BDF83E30ADF80A30BDF8A8
:10B374003E30019ADB0013445B7B8DF80C30019B5B
:10B384001B6902AA11460198984700BF11B030BD4D
:10B3940000B587B001900091009B04330593059B91
:10B3A4001B88DB00019A134406330493059B9B8896
:10B3B4008DF80F30049B9B799DF80F20934228BF92
:10B3C40013468DF80E30059B1B889DF80E2092B213
:10B3D40011461846FFF704FE00BF07B05DF804FBF2
:10B3E40000B585B001900091019B002B01D10E2383
:10B3F4001DE0019B009A1A61019BF7221A80019BB0
:10B40400F7225A80019BFB221A71002303930AE05E
:10B41400039BDB00019A134406331846FFF7C8FD6B
:10B42400039B01330393039B002BF1D000231846A5
:10B4340005B05DF804FB82B001900B46ADF8023014
:10B44400019B002B01D10E230EE0BDF80230162B18
:10B4540003D9BDF80230F72B01D9072304E0019B7F
:10B46400BDF802201A800023184602B0704700007D
:10B4740010B586B001900091009B0593019B9B88B9
:10B48400ADF81230BDF81230002B40F09880019BCB
:10B494001B88552B48D0552B55DC242B32DC102B24
:10B4A40051DB103B142B4ED801A252F823F000BFFD
:10B4B4000FB5020019B502004BB502004BB50200EE
:10B4C4004BB502004BB502004BB502004BB5020070
:10B4D4004BB502004BB502004BB502004BB5020060
:10B4E4004BB502004BB502004BB502004BB5020050
:10B4F4004BB502004BB502004BB5020041B502004A
:10B5040037B502003A2B0AD01DE001990598FFF7E0
:10B51400D5FD19E001990598FFF73AFE14E0019969
:10B524000598FFF746FE0FE001990598FFF78AFE9C
:10B534000AE001990598FFF7EDFE05E001990598E9
:10B54400FFF726FF00E000BFBDF81230059ADB00CC
:10B5540013449B7A002B33D0BDF81230059ADB00DC
:10B564001344DA88BDF8123011461846FFF718FD67
:10B574000390039B002B0ED1BDF81230059ADB001B
:10B58400134400229A72BDF81230059ADB0013446A
:10B594000122DA7214E0039B112B11D0094A0A4BE1
:10B5A400D31ADB081B0443F00104039803F0AEFF35
:10B5B40003461A460549204604F06CFC00E000BF2F
:10B5C40006B010BDE027030088270300E82C030021
:10B5D400B0DF704700BF184666DF704700BF1846EB
:10B5E40082B001900091019B002B01D10E2316E043
:10B5F400009B002B01D10E2311E0019B1B78DE2B55
:10B6040001D108230BE0009B1A68019B5A60019B3F
:10B61400DE221A70019B4FF6FF725A8000231846EF
:10B6240002B0704782B001900B46ADF80230019B26
:10B63400002B01D10E230AE0019B1B78DE2B01D0E5
:10B64400082304E0019BBDF802205A800023184619
:10B6540002B0704700B585B00190019B1B7A002BA6
:10B6640018D0019B5B8800211846FFF7B5FF0390B3
:10B67400039B002B03D1019B00221A720AE0039B57
:10B68400112B03D1019B01221A7203E0019B5B6819
:10B694000398984700BF05B05DF804FB00B583B07C
:10B6A40001900091009B1B79012B0BD1009B1A8800
:10B6B400019B5B889A4205D1019B01221A72019871
:10B6C400FFF7C8FF00BF03B05DF804FB82B0019030
:10B6D400009100BF02B0704700B589B0019000919D
:10B6E400009B1A88019B5B889A4236D1009B0233E7
:10B6F4000793079B1B78022B31D1079B1B7A042BE2
:10B7040007D0079B1B7A062B03D0079B1B7A052BBC
:10B7140027D102AB00221A605A609A60DA600223D1
:10B724008DF808304FF4C073ADF80C30079B1B7ACA
:10B73400052B02D10023ADF80C30009B1B8802AA14
:10B7440011461846FFF744FF0690069B002B09D0CC
:10B75400019B5B680698984704E000BF02E000BFC5
:10B7640000E000BF09B05DF804FB00B585B00190AE
:10B774000091009B002B43D0019B002B40D0009BE9
:10B784000393039B1B78DE2B3AD1019B9A88039B7E
:10B794005B889A4202D10398FFF75CFF019B1B88E8
:10B7A400512B18D0512B28DC112B1BD0112B24DC4E
:10B7B400012B02D0022B07D01FE0019B0433194652
:10B7C4000398FFF76BFF1BE0019B043319460398B2
:10B7D400FFF77CFF14E0019B043319460398FFF73D
:10B7E4007BFF0DE0019B9A88039B5B889A4206D1FC
:10B7F400039B4FF6FF725A8001E000BF00E000BFD8
:10B8040005B05DF804FBA8DF704700BF1846ADDF44
:10B81400704700BF184662DF704700BF184600B586
:10B824008FB00190009100230393019B5869009B02
:10B834009B8803AA1946FFF7B6F90D9005AB0822B9
:10B844000021184606F034FF04AB06930223ADF83A
:10B8540014300023ADF81630009B9888019B1B8997
:10B8640005AA1946FFF7D3FF0D900D9B002B26D197
:10B87400019B9B69002B22D0069B1846FFF7F1F928
:10B884000346002B1BD0039B002B02D0039B0122F9
:10B894001A7007AB18220021184606F009FF02238C
:10B8A4008DF81C30019B0893009B9B88ADF82430D5
:10B8B400039B0A93019B9B6907AA1046984700BF04
:10B8C4000FB05DF804FB00B58DB001900091009BB2
:10B8D40006330B93019B5869009B9B8803AA194666
:10B8E400FFF761F90A9004AB18220021184606F00C
:10B8F400DFFE019B0593009B9B88ADF81830039BEA
:10B9040007930B9B1A88019B1B899A4225D10B9B99
:10B914005B89022B21D1039B002B38D00B9B0C336A
:10B924001846FFF79EF90346002B06D0039B01221D
:10B934001A7002238DF8103005E0039B00221A7060
:10B9440003238DF81030019B9B69002B1FD0019BB2
:10B954009B6904AA1046984719E00B9B1A88019B1F
:10B964009B899A4214D1019B9B69002B10D0002320
:10B974008DF810300B9B0C3308930B9B5B89ADF84F
:10B984002430019B9B6904AA1046984700E000BF3D
:10B9940000BF0DB05DF804FB00B58BB001900091C1
:10B9A400019B5869009B9B8802AA1946FFF7FBF884
:10B9B4000990099B002B1ED1029B1B78002B1BD0E6
:10B9C400019B9B69002B17D003AB1822002118465A
:10B9D40006F06EFE01238DF80C30019B0493009B4E
:10B9E4009B88ADF81430029B0693019B9B6903AAC4
:10B9F4001046984700E000BF0BB05DF804FB00B5AB
:10BA040085B001900091009B002B1ED0019B002B60
:10BA14001BD0009B0393019B1B88572B10D0572BE3
:10BA240015DC102B02D0502B05D010E0019903989F
:10BA3400FFF7F5FE0CE001990398FFF744FF07E0D8
:10BA440001990398FFF7A8FF02E000BF00E000BFE0
:10BA540005B05DF804FB000010B592B001900091B0
:10BA64004F4B0AAC0FCB84E80F00019B002B01D194
:10BA74000E2391E0009B002B01D10E238CE0009B50
:10BA84001A68019B9A61019A0AAB11461846FFF79E
:10BA9400C2FE1190119B1093109B002B01D0109BA0
:10BAA4007AE0019B1B788DF83A300123ADF83830E9
:10BAB400019B9A1C0EAB19460120FFF7A4FE1190BE
:10BAC400119B0F930F9B002B01D00F9B64E002ABE3
:10BAD40020220021184606F0EBFD0223ADF80830C1
:10BAE400019B1B788DF80A30F423ADF80C30012348
:10BAF400ADF80E3001238DF814309DF8153043F065
:10BB040008038DF815309DF8153043F004038DF8C3
:10BB1400153001238DF8193001238DF81A30019B5B
:10BB24005888019B03F10C0202AB1946FFF722F976
:10BB34001190119B002B01D0119B2DE002AB202210
:10BB44000021184606F0B4FD0323ADF80830019B2C
:10BB54001B788DF80A30F423ADF80C300123ADF8CE
:10BB64000E3001238DF814309DF8153043F0100386
:10BB74008DF8153001238DF8193001238DF81A3012
:10BB840001238DF81B30019B5888019B1A1D02ABC1
:10BB94001946FFF7EFF80346184612B010BD00BF70
:10BBA400542D030082B003468DF807309DF9073009
:10BBB400002B13DB9DF8073003F01F0209499DF9A0
:10BBC40007305B09012000FA02F2203341F82320F8
:10BBD400BFF34F8F00BFBFF36F8F00BF00BF02B032
:10BBE400704700BF00E100E0044BD3F80034002BA1
:10BBF40014BF01230023DBB2184670470000014044
:10BC040008B505F0BFF8034683F00103DBB2002B4F
:10BC140003D109497B20FBF7FBFBFFF7E5FF034654
:10BC240083F00103DBB2002B04D000F08DFA034B48
:10BC340000229A7000BF08BD6C2D03003C31002027
:10BC440000B583B000230193184B1B78002B02D05E
:10BC5400852301931CE0154B00229A60134B0022AC
:10BC64005A60124B00221A61104B0022DA6010480D
:10BC740000F034FA019005F085F8034683F00103DF
:10BC8400DBB2002B01D000F04BFA084B01221A70F2
:10BC9400FFF7AAFF0346002B02D0044B01229A703F
:10BCA400019B184603B05DF804FB00BF3C31002043
:10BCB4008DBD020084B00190019B1B680393039B1C
:10BCC400002B03D0039B1A68019B1A60039B184640
:10BCD40004B0704700B583B0164B1B78002B04D119
:10BCE400154940F21710FBF793FB124BDB68002B4E
:10BCF40004D111494FF48C70FBF78AFB00238DF8B3
:10BD040007300DF10703184601F0D0FD094BDB683D
:10BD1400013B084AD360074BDB68002B01D1FFF7D6
:10BD24006FFF9DF80730184601F0D6FD00BF03B041
:10BD34005DF804FB3C3100206C2D030000B585B098
:10BD440003468DF807309DF80730002B02D10C4BC9
:10BD5400039301E00B4B03930398FFF7ABFF0290AF
:10BD6400029B002B06D0029B5B689DF807201046BF
:10BD74009847F1E700BF00BF05B05DF804FB00BFC2
:10BD8400443100204C31002000B583B003468DF8C7
:10BD940007309DF80730002B05D10A4B01225A7059
:10BDA4000020FFF7CBFF9DF80730012B05D1054B91
:10BDB40001229A700120FFF7C1FF00BF03B05DF8B4
:10BDC40004FB00BF3C31002000B583B0019000911A
:10BDD400019B002B05D1054B01225A700020FFF76F
:10BDE400ADFF00BF03B05DF804FB00BF3C31002091
:10BDF40000B585B0034600918DF807309DF80730F3
:10BE0400032B29D0032B35DC002B02D0012B04D0CB
:10BE140030E00020FFF7C6FE2DE000238DF80F3040
:10BE24000DF10F03184601F041FD154B1B7883F00B
:10BE34000103DBB2002B01D0FFF702FF104BDB68DC
:10BE440001330F4AD3600E4B01229A709DF80F30D4
:10BE5400184601F041FD0EE0094B1B78002B04D17C
:10BE6400084940F25220FBF7D3FA00F059F9FFF7E2
:10BE740031FF00E000BF00BF05B05DF804FB00BF68
:10BE84003C3100206C2D030082B003468DF807304E
:10BE94009DF90730002B0CDB9DF8073003F01F02DF
:10BEA40005499DF907305B09012000FA02F241F8C7
:10BEB400232000BF02B0704700E100E082B00346D7
:10BEC40000918DF807309DF90730002B0ADB009BA9
:10BED400DAB20C499DF907305201D2B20B4483F80F
:10BEE40000230BE0009BDAB207499DF8073003F00A
:10BEF4000F03043B5201D2B20B441A7600BF02B0C6
:10BF0400704700BF00E100E000ED00E082B0019066
:10BF1400019B1B0B5BB2184602B0704700B583B09F
:10BF240003460A468DF8073013468DF806309DF80F
:10BF34000630012B03D99DF80630032B0BD99DF84D
:10BF44000630042B03D99DF80630072B03D9084982
:10BF54006B20FBF75DFA9DF806209DF9073011462A
:10BF64001846FFF7ABFF00BF03B05DF804FB00BF4A
:10BF7400EC2D030000B583B003468DF807309DF91E
:10BF840007301846FFF780FF00BF03B05DF804FBDD
:10BF940082B003468DF807300F4A9DF90730002B15
:10BFA40000DA1F335B115BB252F823209DF907308E
:10BFB400594203F01F0301F01F0158BF4B425BB20B
:10BFC40022FA03F303F00103002B14BF012300231F
:10BFD400DBB2184602B0704700E100E082B0019085
:10BFE4004FF08042019BC2F8083300BF02B0704793
:10BFF40082B003468DF807309DF8073003F1804383
:10C0040001221A6000BF02B0704784B00346ADF845
:10C014000630BDF8063003F1804300221A60BDF8F3
:10C02400063003F180431B680393039B00BF04B0F5
:10C03400704782B00346ADF80630BDF8063003F110
:10C0440080431B68002B14BF01230023DBB2184676
:10C0540002B0704782B001904FF08042019BC2F859
:10C06400183500BF02B070474FF08043D3F818343E
:10C074001B0C03F00103002B14BF01230023DBB2CC
:10C084001846704700B583B006238DF807304FF08B
:10C094008040FFF73BFF03461846FFF779FF03464E
:10C0A40083F00103DBB2002B13D04FF08040FFF785
:10C0B4002DFF03461A469DF8073019461046FFF730
:10C0C4002DFF4FF08040FFF721FF03461846FFF78E
:10C0D40051FF00BF03B05DF804FB000000B585B05C
:10C0E4000190019B002B03D10B49A420FBF790F98D
:10C0F40000230393094B1B79002B02D08523039360
:10C1040005E0064A019B1360044B01221A71039B4C
:10C11400184605B05DF804FB242E030050310020BE
:10C1240008B5074B1B79002B03D10649BD20FBF74B
:10C134006FF9FFF7A7FF0120FFF78CFF00BF08BDD1
:10C1440050310020242E030008B50D4B1B79002B21
:10C1540003D10C49F720FBF75BF90220FFF73EFF00
:10C164004FF48270FFF751FF0C20FFF741FF00BF2F
:10C17400FFF77AFF0346002BFAD100BF00BF08BDCA
:10C1840050310020242E030008B54FF48070FFF7CF
:10C1940050FF0346002B0AD04FF48070FFF735FFA1
:10C1A4000120FFF71BFF0C4B1B68002098474FF43E
:10C1B4008270FFF73EFF0346002B0AD04FF48270D3
:10C1C400FFF723FF0220FFF709FF034B1B68012041
:10C1D400984700BF08BD00BF5031002000B583B0B0
:10C1E4000346ADF80630BDF80630184600F026F8D0
:10C1F40003461B68012B0CBF01230023DBB2184646
:10C2040003B05DF804FB00B585B00346ADF8063015
:10C21400BDF80630184600F011F803461A4600230C
:10C224001360BDF80630184600F008F803461B6892
:10C234000393039B00BF05B05DF804FB82B0034683
:10C24400ADF80630BDF8063003F1804303F5C04372
:10C25400184602B07047000082B00190034A019B67
:10C26400C2F8043300BF02B0704700BF0060004052
:10C2740082B00190034A019BC2F8083300BF02B0A8
:10C28400704700BF0060004082B00190034BD3F8B8
:10C294000423019B1340184602B07047006000401D
:10C2A40082B00190084A019B03F5A27352F823302F
:10C2B400054943F00102019B03F5A27341F82320D1
:10C2C40000BF02B0704700BF0060004082B0019020
:10C2D400084A019B03F5A27352F82330054923F061
:10C2E4000102019B03F5A27341F8232000BF02B0B1
:10C2F400704700BF0060004084B003900291134671
:10C304008DF80730144A039B03F5A27352F82330C7
:10C31400114923F44F3323F44073039A02F5A272B4
:10C3240041F822300C4A039B03F5A27352F82320F0
:10C33400029B1B0203F47C519DF807301B0403F499
:10C3440040330B4304491A43039B03F5A27341F89A
:10C35400232000BF04B070470060004082B0019009
:10C36400054A019B03F5A27352F823301B0A03F01C
:10C374003F03184602B070470060004082B001904D
:10C38400064A019B03F5A27352F823301B0C03F0F9
:10C394000303DBB2184602B0704700BF00600040E0
:10C3A40000B583B00190019B1B68184600F028F982
:10C3B4000346002B04D10B494FF4F670FBF728F821
:10C3C400019B1B681F2B02D84FF0A04306E0019B82
:10C3D4001B6803F01F02019B1A60034B184603B04D
:10C3E4005DF804FBD02E03000003005000B585B0B7
:10C3F4000190084611461A4603468DF803300B4651
:10C404008DF8023013468DF8013001AB1846FFF762
:10C41400C7FF03909DF803209DF802305B001A4388
:10C424009DF801309B001A439DF818301B0242EA24
:10C4340003019DF81C301B04019A1943039B02F568
:10C44400E07243F8221000BF05B05DF804FB00B5AC
:10C4540085B003900B468DF80B309DF80B3000220D
:10C46400019200220092002200210398FFF7BEFFF0
:10C4740000BF05B05DF804FB00B585B0019001ABC9
:10C484001846FFF78DFF0390019A039B02F5E072B3
:10C4940053F8223023F002030293019A039B02F51E
:10C4A400E072029943F8221000BF05B05DF804FB66
:10C4B40000B585B001900B468DF8033001AB1846EA
:10C4C400FFF76EFF0390019A039B02F5E07253F8A5
:10C4D4002230019A23F44031039B02F5E07243F8C1
:10C4E4002210019A039B02F5E07253F822109DF882
:10C4F40003301B04019A1943039B02F5E07243F8CD
:10C50400221000BF05B05DF804FB00B585B00190B2
:10C5140001AB1846FFF744FF0390039800F020F89E
:10C524000246019B22FA03F303F00103184605B007
:10C534005DF804FB00B585B0019001AB1846FFF728
:10C544002FFF0390019A039B02F5E07253F8223007
:10C554001B0C03F00303DBB2184605B05DF804FBC3
:10C5640082B00190019BD3F81035184602B0704791
:10C5740088B0039002910192164A05AB92E8030039
:10C5840083E80300039B079319E0079B9B00203378
:10C594006B4453F80C3CD3F82025019B1A60079B8D
:10C5A4009B0020336B4453F80C3C019A1268C3F887
:10C5B4002025019B04330193079B01330793039ABE
:10C5C400029B1344079A9A42DFD300BF00BF08B00E
:10C5D400704700BF002F030000B585B0019001AB88
:10C5E4001846FFF7DDFE0390019B012202FA03F3D4
:10C5F4001A46039BC3F8202500BF05B05DF804FB71
:10C6040084B00190019B5B09029300230393029B76
:10C61400002B03D0029B012B04D007E04FF0FF3323
:10C62400039303E040F2FF33039300BF019B03F045
:10C634001F030193039A019B22FA03F303F00103FE
:10C64400002B14BF01230023DBB2184604B070474B
:10C6540084B001900091009B0393019BDB0802933B
:10C66400019B03F0070301930122019B02FA03F3E8
:10C674000399029A0A4412781340184604B070478A
:10C6840084B001900091009B0393019BDB0802930B
:10C69400019B03F007030193039A029B13441B7845
:10C6A4005AB20121019B01FA03F35BB2134359B25D
:10C6B400039A029B1344CAB21A7000BF04B07047B5
:10C6C40082B001900C4A019B1344303393F900303B
:10C6D400002B09DB084A019B1344303393F90030E3
:10C6E400072B01DC012300E0002303F00103DBB28C
:10C6F400184602B0704700BF5831002082B0019044
:10C70400064A019B1344303393F90030072BCCBF06
:10C7140001230023DBB2184602B0704758310020D1
:10C7240082B00190064A019B1344303393F90030E0
:10C73400DB43DBB2DB09DBB2184602B0704700BF53
:10C744005831002084B00390029101928DF8033097
:10C75400029B59B20E4A039B134430330A461A70A3
:10C764000B49029B019A41F823209DF8033083F082
:10C774000103DBB2002B08D0029B083B039A51B2A1
:10C78400034A13440A4683F85A2000BF04B0704792
:10C794005831002000B583B0019004490198FFF797
:10C7A4006FFF00BF03B05DF804FB00BFB63100208B
:10C7B40082B00190044A019B1344303393F9003052
:10C7C400184602B0704700BF5831002082B0019073
:10C7D400034A019B52F82330184602B0704700BF49
:10C7E4005831002084B00190074A019B13445A3306
:10C7F40093F900308DF80F309DF80F3023F0C0030B
:10C80400184604B0704700BF5831002084B001902E
:10C81400074A019B13445A3393F900308DF80F30C3
:10C824009DF80F309B09DBB2184604B0704700BF77
:10C834005831002000B589B00390029113468DF859
:10C844000730FF238DF81F309DF80730002B01D0EF
:10C85400002300E0082305939DF80730002B01D046
:10C86400082300E00C230493059B069314E00F4A6D
:10C87400069B52F82330B3F1FF3F0AD19DF80730ED
:10C88400029A06990398FFF75DFF069B8DF81F3007
:10C8940006E0069B01330693069A049B9A42E6D36C
:10C8A4009DF91F30184609B05DF804FB583100208B
:10C8B40000B587B00390029101920398FFF7A0FEA0
:10C8C4000346002B04D137494FF40C70FAF7A0FD4E
:10C8D400002305930398FFF723FF0346002B02D0A0
:10C8E4000823059358E0029B9B78C3F34003DBB213
:10C8F4001A4601990398FFF79DFF03468DF81330FC
:10C904009DF91330B3F1FF3F44D0029B9B78C3F3EE
:10C914008003DBB283F00103DBB2002B13D0029B54
:10C924009B7803F00103DBB2002B03D00398FFF7DD
:10C93400A3FD05E0029B5B7819460398FFF787FD8A
:10C944000398FFF727FF029B9B7803F00203DBB2F7
:10C95400002B08D09DF91300029B1B781A460399FB
:10C96400FFF7CAFC18E09DF91330083B0E4A134444
:10C9740093F95A10029B1B785BB29B015AB29DF942
:10C984001330083B0A4351B2074A13440A4683F85A
:10C994005A2001E004230593059B184607B05DF86F
:10C9A40004FB00BF102F03005831002000B589B0EC
:10C9B40001900B468DF803300198FFF721FE0346E2
:10C9C400002B04D13A494FF41870FAF721FD01986D
:10C9D400FFF7A6FE0346002B04D1354940F261203F
:10C9E400FAF716FD0198FFF789FE0346002B2AD0BB
:10C9F4000198FFF7DDFE0346083B1846FFF706FFE4
:10CA040003468DF80F309DF80F30032B0BD101989E
:10CA1400FFF77BFD0346002B01D0032300E0022334
:10CA24008DF81F3008E09DF80F30012B01D102234F
:10CA340000E003238DF81F309DF81F30194601983C
:10CA4400FFF736FD30E00198FFF73AFE0346002B6E
:10CA54002AD00198FFF7ACFE03460693069B9BB2CF
:10CA640040339BB29B00ADF81630069B1846FFF787
:10CA740017FCBDF816301846FFF7C5FB9DF80330C8
:10CA8400002B11D00198FFF793FE03461846FFF7D9
:10CA94009DFE0490049B002B06D00122069B02FA03
:10CAA40003F31846FFF7D8FB00BF09B05DF804FB99
:10CAB400102F030000B585B001900198FFF7A0FD89
:10CAC4000346002B04D11A4940F28B20FAF7A0FC4C
