:1000000000000120190200000102000003020000AC
:1000100005020000070200000902000000000000C5
:100020000000000000000000000000000B020000C3
:100030000D020000000000000F020000110200008D
:10004000130200001302000013020000130200005C
:10005000130200001302000013020000130200004C
:10006000130200001302000013020000130200003C
:10007000130200001302000013020000130200002C
:10008000130200001302000013020000130200001C
:10009000130200001302000013020000130200000C
:1000A00013020000130200001302000013020000FC
:1000B0001302000013020000000000000000000016
:1000C00013020000130200001302000013020000DC
:1000D00013020000130200001302000000000000E1
:1000E0000000000000000000000000000000000010
:1000F0000000000000000000000000000000000000
:1001000000000000000000000000000000000000EF
:1001100000000000000000000000000000000000DF
:1001200000000000000000000000000000000000CF
:1001300000000000000000000000000000000000BF
:1001400000000000000000000000000000000000AF
:10015000000000000000000000000000000000009F
:10016000000000000000000000000000000000008F
:10017000000000000000000000000000000000007F
:10018000000000000000000000000000000000006F
:10019000000000000000000000000000000000005F
:1001A000000000000000000000000000000000004F
:1001B000000000000000000000000000000000003F
:1001C000000000000000000000000000000000002F
:1001D000000000000000000000000000000000001F
:1001E000000000000000000000000000000000000F
:1001F00000000000000000000000000000000000FF
:10020000FEE7FEE7FEE7FEE7FEE7FEE7FEE7FEE7C6
:10021000FEE7FEE700F002B8FFF7FCBF0F484FF023
:100220000701884385460E4880470E48016841F41F
:1002300070010160BFF34F8FBFF36F8F00F01AB8EA
:1002400009480A490A4A884207D0521A05D0037859
:1002500001300B700131013AF9D1704700000120E3
:10026000DD07000088ED00E0B00D00000000002078
:10027000000000203A493B480A1A02D00722914365
:100280008D46394939480A1A06D00722914381F32D
:100290000988022282F3148835483649364A00F02C
:1002A00041F836483649374A00F03CF83648374975
:1002B000374A00F037F837483749384A00F032F803
:1002C00037483849384A00F02DF838483849394A13
:1002D00000F028F838483949394A00F023F83948FD
:1002E0003949002200F036F838483949002200F038
:1002F00031F838483849091A00F009FD374A904763
:1003000025482649884205D00268043003B4904746
:1003100003BCF7E700208646EC4600200021304A67
:100320009047FEE7884214D0521A12D003460B437E
:1003300013430324234206D1036804300B600431C5
:10034000043AF9D17047037801300B700131013A5A
:10035000F9D17047884202D002700130FAE7704745
:100360000000012000E0002000000120000001202A
:10037000100E00000000002010000020E403000028
:10038000E4030000B00D0000100E0000000000208B
:1003900000000020B00D0000B00D0000B00D000006
:1003A000B00D0000B00D0000B00D0000B00D000059
:1003B000B00D0000100E0000200E00001000002004
:1003C0001000002010000020F8040020F804002095
:1003D000F8040020F8040020F82400204102000066
:0403E000D90500003B
:1003E40000B585B00190019B002B0AD0074B43F068
:1003F40001030393019B9B010293039B029898477B
:1004040000E000BF05B05DF804FB00BFF00D000084
:1004140000B583B00190019B1B68184600F09CF85E
:100424000346002B04D10B494FF4F67000F01FFB78
:10043400019B1B681F2B02D84FF0A04306E0019BD1
:100444001B6803F01F02019B1A60034B184603B09C
:100454005DF804FBB00D00000003005000B585B04A
:100464000190084611461A4603468DF803300B46A0
:100474008DF8023013468DF8013001AB1846FFF7B2
:10048400C7FF03909DF803209DF802305B001A43D8
:100494009DF801309B001A439DF818301B0242EA74
:1004A40003019DF81C301B04019A1943039B02F5B8
:1004B400E07243F8221000BF05B05DF804FB00B5FC
:1004C40085B00390002301930023009300230122AD
:1004D40001210398FFF7C2FF00BF05B05DF804FBDC
:1004E40000B585B0019001AB1846FFF791FF03906A
:1004F400019B012202FA03F31946039800F018F84D
:1005040000BF05B05DF804FB00B585B0019001ABF8
:100514001846FFF77DFF0390019B012202FA03F3C3
:100524001946039800F00EF800BF05B05DF804FB0F
:1005340082B001900091019B009AC3F8082500BF86
:1005440002B0704782B001900091019B009AC3F8F9
:100554000C2500BF02B0704784B00190019B5B0979
:10056400029300230393029B002B03D0029B012BD5
:1005740004D007E04FF0FF33039303E040F2FF336E
:10058400039300BF019B03F01F030193039A019B94
:1005940022FA03F303F00103002B14BF0123002309
:1005A400DBB2184604B0704700B583B00190019BDC
:1005B400002B0AD04FF47A70FFF712FF019B013B26
:1005C4000193019B002BF5D100E000BF03B05DF85F
:1005D40004FB000008B50D20FFF771FF084800F088
:1005E40074FA0D20FFF77CFF4FF4FA60FFF7DCFF8D
:1005F4000D20FFF789FF4FF4FA60FFF7D5FFEDE711
:10060400E00D0000BFF34F8F00BF064BDB6803F41F
:10061400E0620449044B1343CB60BFF34F8F00BF28
:1006240000BFFDE700ED00E00400FA0582B0114BC5
:100634001B680193104B1B680093019B0D2B14D175
:10064400009B022B0DD0009B022B0CD8009B002B8F
:1006540003D0009B012B02D005E0012306E0012317
:1006640004E0012302E0012300E00023184602B065
:10067400704700BF300100103401001082B0114BEC
:100684001B680193104B1B680093019B0D2B14D125
:10069400009B022B0DD0009B022B0CD8009B002B3F
:1006A40003D0009B012B02D005E0012306E00123C7
:1006B40004E0012302E0012300E00023184602B015
:1006C400704700BF300100103401001082B0114B9C
:1006D4001B680193104B1B680093019B0D2B14D1D5
:1006E400009B022B0DD0009B022B0CD8009B002BEF
:1006F40003D0009B012B02D005E0012306E0012377
:1007040004E0012302E0012300E00023184602B0C4
:10071400704700BF300100103401001082B0114B4B
:100724001B680193104B1B680093019B0D2B14D184
:10073400009B022B0DD0009B022B0CD8009B002B9E
:1007440003D0009B012B02D005E0002306E0002328
:1007540004E0012302E0012300E00023184602B074
:10076400704700BF300100103401001008B5FFF7D6
:10077400D5FF0346002B07D04FF010234FF08042E3
:10078400D3F80832C2F8583500BF08BD00BF044B87
:10079400D3F80034002BFAD000BF00BF704700BF6D
:1007A40000E0014000B583B00190054A019BC2F806
:1007B4000435FFF7EBFF00BF03B05DF804FB00BF97
:1007C40000E00140024B034A1A6000BF704700BFBB
:1007D400000000200090D00308B5FFF727FF034670
:1007E400002B0ED04FF080430022C3F80C214FF0B1
:1007F40080430022C3F810214FF080430022C3F845
:100804003825FFF73BFF0346002B76D04FF080538B
:100814005E4AD3F80434C2F820354FF080535B4A63
:10082400D3F80834C2F824354FF08053574AD3F82C
:100834000C34C2F828354FF08053544AD3F810349E
:10084400C2F82C354FF08053504AD3F81434C2F810
:1008540030354FF080534D4AD3F81834C2F834354C
:100864004FF08053494AD3F81C34C2F840354FF056
:100874008053464AD3F82034C2F844354FF08053AD
:10088400424AD3F82434C2F848354FF080533F4AE3
:10089400D3F82834C2F84C354FF080533B4AD3F890
:1008A4002C34C2F850354FF08053384AD3F83034E2
:1008B400C2F854354FF08053344AD3F83434C2F874
:1008C40060354FF08053314AD3F83834C2F8643578
:1008D4004FF080532D4AD3F83C34C2F868354FF0BA
:1008E40080532A4AD3F84034C2F86C354FF0805311
:1008F400264AD3F84434C2F87035FFF7E7FE0346BE
:10090400002B0DD04FF08043D3F8003403F00103E3
:10091400002B05D04FF080436FF00102C3F8002490
:100924001B4BD3F888301A4A43F47003C2F888305A
:10093400BFF34F8F00BFBFF36F8F00BFFFF716FFEA
:100944004FF01023D3F80032002B05DB4FF01023B7
:10095400D3F80432002B15DA0120FFF723FF4FF000
:1009640010231222C3F80022FFF710FF4FF01023C8
:100974001222C3F80422FFF709FF0020FFF712FF39
:10098400FFF740FEFFF71EFF00BF08BD00C0004098
:1009940000ED00E086B003900291019201238DF8EE
:1009A40017309DF81730204A039B13601E4A029BA0
:1009B40053601D4A019B9360039B44F201029342DE
:1009C40012D0039B44F20202934220D1019B164AA7
:1009D400D360154BDB681B68134A9361124BDB68C9
:1009E4005B68114AD36112E0019B0F4A13610E4BFD
:1009F4001B699B680C4A53610B4B1B691B680A4AB1
:100A04009361094B1B695B68074AD36100BF72B6E7
:100A140000BF00BF9DF81730DBB2002BFAD162B6DD
:100A240000BF00BF06B070471000002000B587B0BB
:100A340003900291019272B600BF039B44F201023B
:100A4400934207D0039B44F20202934205D1019BD7
:100A5400059303E0019B049300E000BF019A02990F
:100A64000398FFF797FF00BF07B05DF804FB00B5DC
:100A740085B003460091ADF80630BDF80630029308
:100A8400009B039302AB1A46002144F20200FFF7D5
:100A9400CDFF00BF05B05DF804FB40F20801C2F2CF
:100AA4000001096800F000B880B50B468DF803001A
:100AB4000DF103000121012200F01FF89DF803103D
:100AC400002808BF411E084608BD38B540F2080199
:100AD400C2F2000104460D6800F023F902462846DC
:100AE400214600F03DF801301EBF0A20BDE8384021
:100AF400FFF7D3BF4FF0FF3038BDF8B51D4617469A
:100B04000C460646184600F00FF8002803D407FBED
:100B140004F2A24201D20020F8BD2846314600F07A
:100B24001FF8B0FBF4F0F8BD40F20801C2F2000176
:100B340040F20C02C2F2000240F20403C2F20003CB
:100B440009681B681268091A18BF01211B1A18BF0B
:100B540001231940101A18BF012008404042704771
:100B6400006800F0B7B840F23C00C2F20000032174
:100B74000161416140F60761C0F20001816140F208
:100B8400E402C2F20002C2614FF4806202620022F7
:100B940082624262C262016640F2E441C2F2000132
:100BA4004166102181660267C2664267BFF35F8FA8
:100BB4000F2140F6F652C0F20002535C00F8013BEC
:100BC4000139FAD2BFF35F8F7047C268016991425D
:100BD4008FBFD0438068D2431144084470472DE945
:100BE400F0411546884604464068D4E9021630446C
:100BF4008F1B9742414605D900F0AAF83544BFF34C
:100C04005F8F0BE03A4600F0A3F808EB0701606839
:100C1400ED1B2A4600F09CF8BFF35F8FE560BDE84A
:100C2400F0812DE9F843144688460546C7684FF01D
:100C340000092869A968FA43B8429ABF10444218C7
:100C4400024468683844CE1BB24238BF1646A642F6
:100C540028BF26464146324600F07AF8A868F119C2
:100C64000F1A18BF0F46BFF35F8FEF60A41BB04489
:100C7400B144DED14846BDE8F88370B50D4600EBBB
:100C8400400040F23C01C2F2000101EBC00000F15F
:100C94001806C06A02280AD0144601280DD020B9CB
:100CA4003046FFF792FFA0420DD2002410E03046F8
:100CB4002946BDE87040FFF7B4BF3046FFF785FF13
:100CC400A04238BF0446304629462246FFF787FF34
:100CD400204670BDF8B514460D4640F23C01C2F200
:100CE400000106460878002808BFFFF73CFFEFF331
:100CF40011874FF0200181F311883046294622469E
:100D0400FFF7BBFF87F31188F8BD082938BF704788
:100D14000022C0E9002140F2F441C2F2000108605F
:100D240070470178002904BF0020704700214FF06C
:100D340001324358C2FA53F30431002BF9D093FA29
:100D4400A3F0B0FA80F001EBD00004387047000043
:100D54005AB3844690EA01039B071FD1830707D047
:100D640011F8013B00F8013B013AF7D11CE084463D
:100D7400203A09D32DE9F007B1E8F807A0E8F8070D
:100D8400203AF9D2BDE8F0071C3205D451F8043BEF
:100D940040F8043B043AF9D2043205D011F8013B7F
:0C0DA40000F8013B013AF9D160467047AD
:100DB0002E2E2F2E2E2F2E2E2F2E2E2F2E2E2F2E4E
:100DC0002E2F6D6F64756C65732F6E7266782F6849
:100DD000616C2F6E72665F6770696F2E680000002D
:100DE00068656C6C6F20776F726C640000000000A7
:100DF0000338FDD870470000000000005454522012
:100E0000524547474553005465726D696E616C00E9
:100E10000090D00330000020340000203800002073
:0400000300000219DE
:00000001FF
