:100000000000012089030000710300007303000059
:100010007503000077030000790300000000000072
:100020000000000000000000000000007B03000052
:100030007D030000000000007F030000810300003A
:100040008303000083030000830300008303000098
:100050008303000083030000830300008303000088
:100060008303000083030000830300008303000078
:100070008303000083030000830300008303000068
:100080008303000083030000830300008303000058
:100090008303000083030000830300008303000048
:1000A0008303000083030000830300008303000038
:1000B0008303000083030000000000000000000034
:1000C0008303000083030000830300008303000018
:1000D000830300008303000083030000000000008E
:1000E0000000000000000000000000000000000010
:1000F0000000000000000000000000000000000000
:1001000000000000000000000000000000000000EF
:1001100000000000000000000000000000000000DF
:1001200000000000000000000000000000000000CF
:1001300000000000000000000000000000000000BF
:1001400000000000000000000000000000000000AF
:10015000000000000000000000000000000000009F
:10016000000000000000000000000000000000008F
:10017000000000000000000000000000000000007F
:10018000000000000000000000000000000000006F
:10019000000000000000000000000000000000005F
:1001A000000000000000000000000000000000004F
:1001B000000000000000000000000000000000003F
:1001C000000000000000000000000000000000002F
:1001D000000000000000000000000000000000001F
:1001E000000000000000000000000000000000000F
:1001F00000000000000000000000000000000000FF
:100200003A493B480A1A02D0072291438D463949A0
:1002100039480A1A06D00722914381F3098802223D
:1002200082F3148835483649364A00F041F836489A
:100230003649374A00F03CF836483749374A00F02B
:1002400037F837483749384A00F032F837483849E4
:10025000384A00F02DF838483849394A00F028F873
:1002600038483949394A00F023F8394839490022D9
:1002700000F036F838483949002200F031F83848A3
:100280003849091A00F070FF374A90472548264937
:10029000884205D00268043003B4904703BCF7E7F6
:1002A00000208646EC4600200021304A9047FEE7B9
:1002B000884214D0521A12D003460B43134303242E
:1002C000234206D1036804300B600431043AF9D1AB
:1002D0007047037801300B700131013AF9D1704752
:1002E000884202D002700130FAE770470000012016
:1002F00000E0002000000120000001203812000072
:100300000000002004000020E4030000E4030000DB
:1003100080110000381200000000002000000020C2
:100320008011000080110000801100008011000089
:100330008011000080110000801100008011000079
:10034000361200003C1200000400002004000020CF
:1003500004000020280000202800002028000020A1
:100360002800002028200020B10300006B080000B6
:10037000FEE7FEE7FEE7FEE7FEE7FEE7FEE7FEE755
:10038000FEE7FEE700F002B8FFF7FCBF0F484FF0B2
:100390000701884385460E4880470E48016841F4AE
:1003A00070010160BFF34F8FBFF36F8FFFF728BF5E
:1003B00009480A490A4A884207D0521A05D00378E8
:1003C00001300B700131013AF9D170470000012072
:1003D000BD0E000088ED00E080110000000000204C
:0403E00000000020F9
:1003E40000B583B00190019B1B68184600F0D7F854
:1003F4000346002B04D105494FF4F67000F0EFF9E1
:100404004FF0A043184603B05DF804FB80110000D0
:1004140000B585B00190084611461A4603468DF88A
:1004240003300B468DF8023013468DF8013001ABD2
:100434001846FFF7D5FF03909DF803209DF802307E
:100444005B001A439DF801309B001A439DF8183055
:100454001B0242EA03019DF81C301B04019A194354
:10046400039B02F5E07243F8221000BF05B05DF86B
:1004740004FB00B585B0039000230193002300938F
:100484000023012201210398FFF7C2FF00BF05B03A
:100494005DF804FB00B585B003900B468DF80B3076
:1004A4009DF80B30002201920022009200220021CC
:1004B4000398FFF7ADFF00BF05B05DF804FB00B57E
:1004C40085B0019001AB1846FFF78AFF0390019BAA
:1004D400012202FA03F31946039800F04CF800BF16
:1004E40005B05DF804FB00B585B0019001AB18467A
:1004F400FFF776FF0390019B012202FA03F31946EA
:10050400039800F042F800BF05B05DF804FB00B5A5
:1005140085B0019001AB1846FFF762FF0390039B7F
:10052400D3F804350293029BDA43019B012101FABB
:1005340003F31A40039BC3F80825019B01229A4048
:10054400029B1A40039BC3F80C2500BF05B05DF85D
:1005540004FB00B583B001900091009B002B03D1F4
:100564000198FFF7C0FF02E00198FFF7A8FF00BF62
:1005740003B05DF804FB82B001900091019B009AE6
:10058400C3F8082500BF02B0704782B00190009103
:10059400019B009AC3F80C2500BF02B0704784B0D9
:1005A4000190019B5B09029300230393029B002BA0
:1005B40003D14FF0FF33039300BF019B03F01F03EC
:1005C4000193039A019B22FA03F303F00103002B26
:1005D40014BF01230023DBB2184604B070470000A7
:1005E40000B583B00190019B032B03D90749472031
:1005F40000F0F5F8064A019B13441B7801211846C4
:10060400FFF7A7FF00BF03B05DF804FBB0110000C3
:100614002012000000B583B00023019305E0019887
:10062400FFF7DEFF019B01330193019B032BF6D9F6
:1006340000BF00BF03B05DF804FB000000B583B049
:100644000190019B032B03D907495F2000F0C7F8F1
:10065400064A019B13441B781846FFF758FF00BF56
:1006640003B05DF804FB00BFB011000020120000CD
:1006740000B583B00023019309E0094A019B1344A8
:100684001B781846FFF7F5FE019B01330193019B8C
:10069400032BF2D9FFF7BEFF00BF03B05DF804FBE4
:1006A4002012000000B583B0002301930AE0094A38
:1006B400019B13441B7803211846FFF7EBFE019BB3
:1006C40001330193019B032BF1D900BF00BF03B099
:1006D4005DF804FB2412000000B583B00190019B77
:1006E40003F00103002B01D0FFF7C2FF019B03F0CD
:1006F4000203002B01D0FFF7D5FF00BF03B05DF864
:1007040004FB000086B003900291019201238DF84E
:1007140017309DF81730204A039B13601E4A029B32
:1007240053601D4A019B9360039B44F20102934270
:1007340012D0039B44F20202934220D1019B164A39
:10074400D360154BDB681B68134A9361124BDB685B
:100754005B68114AD36112E0019B0F4A13610E4B8F
:100764001B699B680C4A53610B4B1B691B680A4A43
:100774009361094B1B695B68074AD36100BF72B67A
:1007840000BF00BF9DF81730DBB2002BFAD162B670
:1007940000BF00BF06B070470400002000B587B05A
:1007A40003900291019272B600BF039B44F20102CE
:1007B400934207D0039B44F20202934205D1019B6A
:1007C400059303E0019B049300E000BF019A0299A2
:1007D4000398FFF797FF00BF07B05DF804FB00B56F
:1007E40085B003460091ADF80630BDF8063002939B
:1007F400009B039302AB1A46002144F20200FFF768
:10080400CDFF00BF05B05DF804FB000000B585B066
:100814000190019B002B0AD0074B43F00103039383
:10082400019B9B010293039B0298984700E000BF41
:1008340005B05DF804FB00BF3012000000B583B0C2
:100844000190019B002B0AD04FF47A70FFF7DEFF72
:10085400019B013B0193019B002BF5D100E000BFFC
:1008640003B05DF804FB00B583B00120FFF734FF4B
:10087400002301930AE0019B1846FFF7DFFE4FF4C3
:10088400FA60FFF7DBFF019B01330193019B032B0C
:10089400F1DDEDE7BFF34F8F00BF064BDB6803F4D8
:1008A400E0620449044B1343CB60BFF34F8F00BF96
:1008B40000BFFDE700ED00E00400FA0582B01D4B27
:1008C4001B68B3F1FF3F0AD11B4B1B68DBB20193DA
:1008D4001A4B1B681B0903F00F03009305E0154B2B
:1008E4001B680193164B1B680093019B062B1DD1BB
:1008F400009B033B042B17D801A252F823F000BF3E
:10090400190900001D090000210900002509000043
:100914002909000001230AE0012308E0012306E07D
:10092400012304E0012302E0012300E00023184630
:1009340002B0704730010010E00F00F0E80F00F043
:100944003401001082B0174B1B68DBB20193164BC5
:100954001B681B0903F00F030093019B062B1DD199
:10096400009B033B042B17D801A252F823F000BFCD
:10097400890900008D090000910900009509000013
:100984009909000001230AE0002308E0002306E09F
:10099400002304E0002302E0002300E000231846C3
:1009A40002B07047E00F00F0E80F00F082B01D4B7A
:1009B4001B68B3F1FF3F0AD11B4B1B68DBB20193E9
:1009C4001A4B1B681B0903F00F03009305E0154B3A
:1009D4001B680193164B1B680093019B062B1DD1CA
:1009E400009B033B042B17D801A252F823F000BF4D
:1009F400090A00000D0A0000110A0000150A00008F
:100A0400190A000001230AE0012308E0012306E09B
:100A1400012304E0012302E0012300E0002318463F
:100A240002B0704730010010E00F00F0E80F00F052
:100A34003401001082B0174B1B68DBB20193164BD4
:100A44001B681B0903F00F030093019B062B1DD1A8
:100A5400009B033B042B17D801A252F823F000BFDC
:100A6400790A00007D0A0000810A0000850A00005E
:100A7400890A000001230AE0002308E0002306E0BD
:100A8400002304E0002302E0002300E000231846D2
:100A940002B07047E00F00F0E80F00F082B01D4B89
:100AA4001B68B3F1FF3F0AD11B4B1B68DBB20193F8
:100AB4001A4B1B681B0903F00F03009305E0154B49
:100AC4001B680193164B1B680093019B062B1DD1D9
:100AD400009B033B042B17D801A252F823F000BF5C
:100AE400F90A0000FD0A0000010B0000050B0000DC
:100AF400090B000001230AE0012308E0012306E0BA
:100B0400012304E0012302E0012300E0002318464E
:100B140002B0704730010010E00F00F0E80F00F061
:100B24003401001082B0174B1B68DBB20193164BE3
:100B34001B681B0903F00F030093019B062B1DD1B7
:100B4400009B033B042B17D801A252F823F000BFEB
:100B5400690B00006D0B0000710B0000750B0000A9
:100B6400790B000001230AE0002308E0002306E0DB
:100B7400002304E0002302E0002300E000231846E1
:100B840002B07047E00F00F0E80F00F082B0174B9E
:100B94001B68DBB20193164B1B681B0903F00F03A0
:100BA4000093019B062B1DD1009B033B042B17D8FC
:100BB40001A252F823F000BFD10B0000D50B0000B6
:100BC400D90B0000DD0B0000E10B000001230AE05B
:100BD400002308E0002306E0002304E0002302E0F1
:100BE400002300E00023184602B07047E00F00F035
:100BF400E80F00F082B01D4B1B68B3F1FF3F0AD130
:100C04001B4B1B68DBB201931A4B1B681B0903F0D7
:100C14000F03009305E0154B1B680193164B1B68EB
:100C24000093019B062B1DD1009B033B042B17D87B
:100C340001A252F823F000BF510C0000550C000033
:100C4400590C00005D0C0000610C000000230AE058
:100C5400002308E0012306E0012304E0012302E06D
:100C6400012300E00023184602B070473001001051
:100C7400E00F00F0E80F00F03401001082B01D4BCB
:100C84001B68B3F1FF3F0AD11B4B1B68DBB2019316
:100C94001A4B1B681B0903F00F03009305E0154B67
:100CA4001B680193164B1B680093019B062B1DD1F7
:100CB400009B033B042B17D801A252F823F000BF7A
:100CC400D90C0000DD0C0000E10C0000E50C000074
:100CD400E90C000001230AE0012308E0012306E0F7
:100CE400012304E0012302E0012300E0002318466D
:100CF40002B0704730010010E00F00F0E80F00F080
:100D04003401001082B01D4B1B68B3F1FF3F0AD1C0
:100D14001B4B1B68DBB201931A4B1B681B0903F0C6
:100D24000F03009305E0154B1B680193164B1B68DA
:100D34000093019B062B1DD1009B033B042B17D86A
:100D440001A252F823F000BF610D0000650D000000
:100D5400690D00006D0D0000710D000001230AE013
:100D6400012308E0012306E0012304E0012302E05B
:100D7400012300E00023184602B070473001001040
:100D8400E00F00F0E80F00F03401001082B0154BC2
:100D94001B680193144B1B680093019B062B1DD108
:100DA400009B033B042B17D801A252F823F000BF89
:100DB400C90D0000CD0D0000D10D0000D50D0000BF
:100DC400D90D000000230AE0002308E0002306E018
:100DD400012304E0012302E0012300E0002318467C
:100DE40002B07047300100103401001082B0154B7E
:100DF4001B680193144B1B680093019B062B1DD1A8
:100E0400009B033B042B17D801A252F823F000BF28
:100E1400290E00002D0E0000310E0000350E0000DA
:100E2400390E000000230AE0002308E0002306E056
:100E3400002304E0012302E0012300E0002318461C
:100E440002B07047300100103401001008B5FFF7FC
:100E5400CDFF0346002B07D04FF010234FF0804204
:100E6400D3F80832C2F8583500BF08BD00BF044BA0
:100E7400D3F80034002BFAD000BF00BF704700BF86
:100E840000E0014000B583B00190054A019BC2F81F
:100E94000435FFF7EBFF00BF03B05DF804FB00BFB0
:100EA40000E00140024B034A1A6000BF704700BFD4
:100EB400000000200090D00308B5FFF7FFFC0346B4
:100EC400002B06D0964B1B681B0A964A03F01F039F
:100ED4001360FFF737FD0346002B02D0924B934A71
:100EE4001A60FFF763FD0346002B06D0904B1B6886
:100EF4005B0B904A03F007031360FFF79BFD034667
:100F0400002B05D08C4BDB688B4A23F08073D360B5
:100F1400FFF7C4FD0346002B0ED04FF080430022A0
:100F2400C3F80C214FF080430022C3F810214FF086
:100F340080430022C3F83825FFF7F4FD0346002B55
:100F440002D07E4B03221A60FFF720FE0346002BDB
:100F54000BD07B4B05221A607A4B01221A607A4B24
:100F640000221A60794B3F221A60FFF743FE0346C2
:100F7400002B76D04FF08053754AD3F80434C2F86E
:100F840020354FF08053724AD3F80834C2F8243520
:100F94004FF080536E4AD3F80C34C2F828354FF022
:100FA40080536B4AD3F81034C2F82C354FF0805379
:100FB400674AD3F81434C2F830354FF08053644A8A
:100FC400D3F81834C2F834354FF08053604AD3F85C
:100FD4001C34C2F840354FF080535D4AD3F82034B6
:100FE400C2F844354FF08053594AD3F82434C2F838
:100FF40048354FF08053564AD3F82834C2F84C355C
:101004004FF08053524AD3F82C34C2F850354FF085
:1010140080534F4AD3F83034C2F854354FF08053DC
:101024004B4AD3F83434C2F860354FF08053484A01
:10103400D3F83834C2F864354FF08053444AD3F8B7
:101044003C34C2F868354FF08053414AD3F84034F9
:10105400C2F86C354FF080533D4AD3F84434C2F89B
:101064007035FFF70BFE0346002B05D0394B1B6888
:10107400394A03F04F031360FFF744FE0346002B85
:101084000DD04FF08043D3F8003403F00103002B5C
:1010940005D04FF080436FF00102C3F80024FFF73E
:1010A40075FE0346002B05D02C4B1B682B4A43F4DA
:1010B400806313602A4BD3F88830294A43F47003C1
:1010C400C2F88830BFF34F8F00BFBFF36F8F00BFEC
:1010D400FFF7BCFE4FF01023D3F80032002B05DBE2
:1010E4004FF01023D3F80432002B15DA0120FFF758
:1010F400C9FE4FF010231522C3F80022FFF7B6FEF5
:101104004FF010231522C3F80422FFF7AFFE00208E
:10111400FFF7B8FEFFF7BEFBFFF7C4FE00BF08BD34
:10112400240300104035014074C007400DF0ADBAEF
:10113400440200103C050040F0ED00E0A005004032
:10114400105600408856004018560040145600407F
:1011540000C0004058020010E40E00403C1700405C
:1011640000ED00E0082938BF70470022C0E90021E3
:0C11740040F22401C2F200010860704744
:101180002E2E2F2E2E2F2E2E2F2E2E2F2E2E2F2E7A
:101190002E2F6D6F64756C65732F6E7266782F6875
:1011A000616C2F6E72665F6770696F2E6800000059
:1011B000433A5C55736572735C41686D65645C4469
:1011C0006F776E6C6F6164735C446173706F642DD4
:1011D00073646B6C5C6E5246355F53444B5F3137C2
:1011E0002E312E305F646464653536305C6E524655
:1011F000355F53444B5F31372E312E305F6464646A
:10120000653536305C636F6D706F6E656E74735CE0
:10121000626F617264735C626F617264732E6300EB
:101220000D0E0F100D0E0F1000000000000000004A
:061230000338FDD87047F1
:041238000090D0034F
:04000003000003896D
:00000001FF
